{
  "_format": "hh-sol-artifact-1",
  "contractName": "SynergyCoin",
  "sourceName": "contracts/SynergyCoin.sol",
  "abi": [
    {
      "inputs": [
        {
          "internalType": "address",
          "name": "multisigOwner",
          "type": "address"
        }
      ],
      "stateMutability": "nonpayable",
      "type": "constructor"
    },
    {
      "anonymous": false,
      "inputs": [
        {
          "indexed": true,
          "internalType": "address",
          "name": "from",
          "type": "address"
        },
        {
          "indexed": true,
          "internalType": "address",
          "name": "to",
          "type": "address"
        },
        {
          "indexed": false,
          "internalType": "uint256",
          "name": "amount",
          "type": "uint256"
        }
      ],
      "name": "AdminForceTransfer",
      "type": "event"
    },
    {
      "anonymous": false,
      "inputs": [
        {
          "indexed": true,
          "internalType": "address",
          "name": "owner",
          "type": "address"
        },
        {
          "indexed": true,
          "internalType": "address",
          "name": "spender",
          "type": "address"
        },
        {
          "indexed": false,
          "internalType": "uint256",
          "name": "value",
          "type": "uint256"
        }
      ],
      "name": "Approval",
      "type": "event"
    },
    {
      "anonymous": false,
      "inputs": [
        {
          "indexed": false,
          "internalType": "bool",
          "name": "locked",
          "type": "bool"
        }
      ],
      "name": "GlobalLockChanged",
      "type": "event"
    },
    {
      "anonymous": false,
      "inputs": [
        {
          "indexed": false,
          "internalType": "address",
          "name": "account",
          "type": "address"
        }
      ],
      "name": "Paused",
      "type": "event"
    },
    {
      "anonymous": false,
      "inputs": [
        {
          "indexed": true,
          "internalType": "bytes32",
          "name": "role",
          "type": "bytes32"
        },
        {
          "indexed": true,
          "internalType": "bytes32",
          "name": "previousAdminRole",
          "type": "bytes32"
        },
        {
          "indexed": true,
          "internalType": "bytes32",
          "name": "newAdminRole",
          "type": "bytes32"
        }
      ],
      "name": "RoleAdminChanged",
      "type": "event"
    },
    {
      "anonymous": false,
      "inputs": [
        {
          "indexed": true,
          "internalType": "bytes32",
          "name": "role",
          "type": "bytes32"
        },
        {
          "indexed": true,
          "internalType": "address",
          "name": "account",
          "type": "address"
        },
        {
          "indexed": true,
          "internalType": "address",
          "name": "sender",
          "type": "address"
        }
      ],
      "name": "RoleGranted",
      "type": "event"
    },
    {
      "anonymous": false,
      "inputs": [
        {
          "indexed": true,
          "internalType": "bytes32",
          "name": "role",
          "type": "bytes32"
        },
        {
          "indexed": true,
          "internalType": "address",
          "name": "account",
          "type": "address"
        },
        {
          "indexed": true,
          "internalType": "address",
          "name": "sender",
          "type": "address"
        }
      ],
      "name": "RoleRevoked",
      "type": "event"
    },
    {
      "anonymous": false,
      "inputs": [
        {
          "indexed": false,
          "internalType": "uint256",
          "name": "id",
          "type": "uint256"
        }
      ],
      "name": "Snapshot",
      "type": "event"
    },
    {
      "anonymous": false,
      "inputs": [
        {
          "indexed": true,
          "internalType": "address",
          "name": "from",
          "type": "address"
        },
        {
          "indexed": true,
          "internalType": "address",
          "name": "to",
          "type": "address"
        },
        {
          "indexed": false,
          "internalType": "uint256",
          "name": "value",
          "type": "uint256"
        }
      ],
      "name": "Transfer",
      "type": "event"
    },
    {
      "anonymous": false,
      "inputs": [
        {
          "indexed": false,
          "internalType": "address",
          "name": "account",
          "type": "address"
        }
      ],
      "name": "Unpaused",
      "type": "event"
    },
    {
      "anonymous": false,
      "inputs": [
        {
          "indexed": true,
          "internalType": "address",
          "name": "who",
          "type": "address"
        },
        {
          "indexed": false,
          "internalType": "bool",
          "name": "frozen",
          "type": "bool"
        }
      ],
      "name": "WalletFrozen",
      "type": "event"
    },
    {
      "anonymous": false,
      "inputs": [
        {
          "indexed": true,
          "internalType": "address",
          "name": "who",
          "type": "address"
        },
        {
          "indexed": false,
          "internalType": "bool",
          "name": "unlocked",
          "type": "bool"
        }
      ],
      "name": "WalletUnlocked",
      "type": "event"
    },
    {
      "inputs": [],
      "name": "DEFAULT_ADMIN_ROLE",
      "outputs": [
        {
          "internalType": "bytes32",
          "name": "",
          "type": "bytes32"
        }
      ],
      "stateMutability": "view",
      "type": "function"
    },
    {
      "inputs": [],
      "name": "FREEZER_ROLE",
      "outputs": [
        {
          "internalType": "bytes32",
          "name": "",
          "type": "bytes32"
        }
      ],
      "stateMutability": "view",
      "type": "function"
    },
    {
      "inputs": [],
      "name": "MAX_SUPPLY",
      "outputs": [
        {
          "internalType": "uint256",
          "name": "",
          "type": "uint256"
        }
      ],
      "stateMutability": "view",
      "type": "function"
    },
    {
      "inputs": [],
      "name": "MINTER_ROLE",
      "outputs": [
        {
          "internalType": "bytes32",
          "name": "",
          "type": "bytes32"
        }
      ],
      "stateMutability": "view",
      "type": "function"
    },
    {
      "inputs": [],
      "name": "PAUSER_ROLE",
      "outputs": [
        {
          "internalType": "bytes32",
          "name": "",
          "type": "bytes32"
        }
      ],
      "stateMutability": "view",
      "type": "function"
    },
    {
      "inputs": [],
      "name": "SNAPSHOT_ROLE",
      "outputs": [
        {
          "internalType": "bytes32",
          "name": "",
          "type": "bytes32"
        }
      ],
      "stateMutability": "view",
      "type": "function"
    },
    {
      "inputs": [
        {
          "internalType": "address",
          "name": "from",
          "type": "address"
        },
        {
          "internalType": "address",
          "name": "to",
          "type": "address"
        },
        {
          "internalType": "uint256",
          "name": "amount",
          "type": "uint256"
        }
      ],
      "name": "adminForceTransfer",
      "outputs": [],
      "stateMutability": "nonpayable",
      "type": "function"
    },
    {
      "inputs": [
        {
          "internalType": "address",
          "name": "owner",
          "type": "address"
        },
        {
          "internalType": "address",
          "name": "spender",
          "type": "address"
        }
      ],
      "name": "allowance",
      "outputs": [
        {
          "internalType": "uint256",
          "name": "",
          "type": "uint256"
        }
      ],
      "stateMutability": "view",
      "type": "function"
    },
    {
      "inputs": [
        {
          "internalType": "address",
          "name": "spender",
          "type": "address"
        },
        {
          "internalType": "uint256",
          "name": "amount",
          "type": "uint256"
        }
      ],
      "name": "approve",
      "outputs": [
        {
          "internalType": "bool",
          "name": "",
          "type": "bool"
        }
      ],
      "stateMutability": "nonpayable",
      "type": "function"
    },
    {
      "inputs": [
        {
          "internalType": "address",
          "name": "account",
          "type": "address"
        }
      ],
      "name": "balanceOf",
      "outputs": [
        {
          "internalType": "uint256",
          "name": "",
          "type": "uint256"
        }
      ],
      "stateMutability": "view",
      "type": "function"
    },
    {
      "inputs": [
        {
          "internalType": "address",
          "name": "account",
          "type": "address"
        },
        {
          "internalType": "uint256",
          "name": "snapshotId",
          "type": "uint256"
        }
      ],
      "name": "balanceOfAt",
      "outputs": [
        {
          "internalType": "uint256",
          "name": "",
          "type": "uint256"
        }
      ],
      "stateMutability": "view",
      "type": "function"
    },
    {
      "inputs": [
        {
          "internalType": "uint256",
          "name": "amount",
          "type": "uint256"
        }
      ],
      "name": "burn",
      "outputs": [],
      "stateMutability": "nonpayable",
      "type": "function"
    },
    {
      "inputs": [
        {
          "internalType": "address",
          "name": "account",
          "type": "address"
        },
        {
          "internalType": "uint256",
          "name": "amount",
          "type": "uint256"
        }
      ],
      "name": "burnFrom",
      "outputs": [],
      "stateMutability": "nonpayable",
      "type": "function"
    },
    {
      "inputs": [],
      "name": "decimals",
      "outputs": [
        {
          "internalType": "uint8",
          "name": "",
          "type": "uint8"
        }
      ],
      "stateMutability": "pure",
      "type": "function"
    },
    {
      "inputs": [
        {
          "internalType": "address",
          "name": "spender",
          "type": "address"
        },
        {
          "internalType": "uint256",
          "name": "subtractedValue",
          "type": "uint256"
        }
      ],
      "name": "decreaseAllowance",
      "outputs": [
        {
          "internalType": "bool",
          "name": "",
          "type": "bool"
        }
      ],
      "stateMutability": "nonpayable",
      "type": "function"
    },
    {
      "inputs": [
        {
          "internalType": "address",
          "name": "account",
          "type": "address"
        },
        {
          "internalType": "uint256",
          "name": "amount",
          "type": "uint256"
        }
      ],
      "name": "forcedBurnFrom",
      "outputs": [],
      "stateMutability": "nonpayable",
      "type": "function"
    },
    {
      "inputs": [
        {
          "internalType": "address",
          "name": "",
          "type": "address"
        }
      ],
      "name": "frozen",
      "outputs": [
        {
          "internalType": "bool",
          "name": "",
          "type": "bool"
        }
      ],
      "stateMutability": "view",
      "type": "function"
    },
    {
      "inputs": [
        {
          "internalType": "bytes32",
          "name": "role",
          "type": "bytes32"
        }
      ],
      "name": "getRoleAdmin",
      "outputs": [
        {
          "internalType": "bytes32",
          "name": "",
          "type": "bytes32"
        }
      ],
      "stateMutability": "view",
      "type": "function"
    },
    {
      "inputs": [],
      "name": "globalLocked",
      "outputs": [
        {
          "internalType": "bool",
          "name": "",
          "type": "bool"
        }
      ],
      "stateMutability": "view",
      "type": "function"
    },
    {
      "inputs": [
        {
          "internalType": "bytes32",
          "name": "role",
          "type": "bytes32"
        },
        {
          "internalType": "address",
          "name": "account",
          "type": "address"
        }
      ],
      "name": "grantRole",
      "outputs": [],
      "stateMutability": "nonpayable",
      "type": "function"
    },
    {
      "inputs": [
        {
          "internalType": "bytes32",
          "name": "role",
          "type": "bytes32"
        },
        {
          "internalType": "address",
          "name": "account",
          "type": "address"
        }
      ],
      "name": "hasRole",
      "outputs": [
        {
          "internalType": "bool",
          "name": "",
          "type": "bool"
        }
      ],
      "stateMutability": "view",
      "type": "function"
    },
    {
      "inputs": [
        {
          "internalType": "address",
          "name": "spender",
          "type": "address"
        },
        {
          "internalType": "uint256",
          "name": "addedValue",
          "type": "uint256"
        }
      ],
      "name": "increaseAllowance",
      "outputs": [
        {
          "internalType": "bool",
          "name": "",
          "type": "bool"
        }
      ],
      "stateMutability": "nonpayable",
      "type": "function"
    },
    {
      "inputs": [
        {
          "internalType": "address",
          "name": "to",
          "type": "address"
        },
        {
          "internalType": "uint256",
          "name": "amount",
          "type": "uint256"
        }
      ],
      "name": "mint",
      "outputs": [],
      "stateMutability": "nonpayable",
      "type": "function"
    },
    {
      "inputs": [],
      "name": "name",
      "outputs": [
        {
          "internalType": "string",
          "name": "",
          "type": "string"
        }
      ],
      "stateMutability": "view",
      "type": "function"
    },
    {
      "inputs": [],
      "name": "pause",
      "outputs": [],
      "stateMutability": "nonpayable",
      "type": "function"
    },
    {
      "inputs": [],
      "name": "paused",
      "outputs": [
        {
          "internalType": "bool",
          "name": "",
          "type": "bool"
        }
      ],
      "stateMutability": "view",
      "type": "function"
    },
    {
      "inputs": [
        {
          "internalType": "bytes32",
          "name": "role",
          "type": "bytes32"
        },
        {
          "internalType": "address",
          "name": "account",
          "type": "address"
        }
      ],
      "name": "renounceRole",
      "outputs": [],
      "stateMutability": "nonpayable",
      "type": "function"
    },
    {
      "inputs": [
        {
          "internalType": "bytes32",
          "name": "role",
          "type": "bytes32"
        },
        {
          "internalType": "address",
          "name": "account",
          "type": "address"
        }
      ],
      "name": "revokeRole",
      "outputs": [],
      "stateMutability": "nonpayable",
      "type": "function"
    },
    {
      "inputs": [
        {
          "internalType": "address",
          "name": "account",
          "type": "address"
        },
        {
          "internalType": "bool",
          "name": "isFrozen",
          "type": "bool"
        }
      ],
      "name": "setFrozen",
      "outputs": [],
      "stateMutability": "nonpayable",
      "type": "function"
    },
    {
      "inputs": [
        {
          "internalType": "bool",
          "name": "locked",
          "type": "bool"
        }
      ],
      "name": "setGlobalLock",
      "outputs": [],
      "stateMutability": "nonpayable",
      "type": "function"
    },
    {
      "inputs": [
        {
          "internalType": "address",
          "name": "who",
          "type": "address"
        },
        {
          "internalType": "bool",
          "name": "unlocked",
          "type": "bool"
        }
      ],
      "name": "setWalletUnlocked",
      "outputs": [],
      "stateMutability": "nonpayable",
      "type": "function"
    },
    {
      "inputs": [],
      "name": "snapshot",
      "outputs": [
        {
          "internalType": "uint256",
          "name": "",
          "type": "uint256"
        }
      ],
      "stateMutability": "nonpayable",
      "type": "function"
    },
    {
      "inputs": [
        {
          "internalType": "bytes4",
          "name": "interfaceId",
          "type": "bytes4"
        }
      ],
      "name": "supportsInterface",
      "outputs": [
        {
          "internalType": "bool",
          "name": "",
          "type": "bool"
        }
      ],
      "stateMutability": "view",
      "type": "function"
    },
    {
      "inputs": [],
      "name": "symbol",
      "outputs": [
        {
          "internalType": "string",
          "name": "",
          "type": "string"
        }
      ],
      "stateMutability": "view",
      "type": "function"
    },
    {
      "inputs": [],
      "name": "totalSupply",
      "outputs": [
        {
          "internalType": "uint256",
          "name": "",
          "type": "uint256"
        }
      ],
      "stateMutability": "view",
      "type": "function"
    },
    {
      "inputs": [
        {
          "internalType": "uint256",
          "name": "snapshotId",
          "type": "uint256"
        }
      ],
      "name": "totalSupplyAt",
      "outputs": [
        {
          "internalType": "uint256",
          "name": "",
          "type": "uint256"
        }
      ],
      "stateMutability": "view",
      "type": "function"
    },
    {
      "inputs": [
        {
          "internalType": "address",
          "name": "to",
          "type": "address"
        },
        {
          "internalType": "uint256",
          "name": "amount",
          "type": "uint256"
        }
      ],
      "name": "transfer",
      "outputs": [
        {
          "internalType": "bool",
          "name": "",
          "type": "bool"
        }
      ],
      "stateMutability": "nonpayable",
      "type": "function"
    },
    {
      "inputs": [
        {
          "internalType": "address",
          "name": "from",
          "type": "address"
        },
        {
          "internalType": "address",
          "name": "to",
          "type": "address"
        },
        {
          "internalType": "uint256",
          "name": "amount",
          "type": "uint256"
        }
      ],
      "name": "transferFrom",
      "outputs": [
        {
          "internalType": "bool",
          "name": "",
          "type": "bool"
        }
      ],
      "stateMutability": "nonpayable",
      "type": "function"
    },
    {
      "inputs": [],
      "name": "unpause",
      "outputs": [],
      "stateMutability": "nonpayable",
      "type": "function"
    },
    {
      "inputs": [
        {
          "internalType": "address",
          "name": "",
          "type": "address"
        }
      ],
      "name": "walletUnlocked",
      "outputs": [
        {
          "internalType": "bool",
          "name": "",
          "type": "bool"
        }
      ],
      "stateMutability": "view",
      "type": "function"
    }
  ],
  "bytecode": "0x6080604052600a805461ff001916610100179055600d805460ff191690553480156200002a57600080fd5b5060405162002941380380620029418339810160408190526200004d9162000680565b6040518060400160405280600c81526020016b29bcb732b933bc9021b7b4b760a11b81525060405180604001604052806004815260200163534e524760e01b8152508160039081620000a0919062000758565b506004620000af828262000758565b5050600a805460ff19169055506001600160a01b038116620001055760405162461bcd60e51b815260206004820152600a6024820152696f776e6572207a65726f60b01b60448201526064015b60405180910390fd5b62000112600082620001f3565b6200013e7f9f2df0fed2c77648de5860a4cc508cd0818c85b8b8a1ab4ceeef8d981c8956a682620001f3565b6200016a7f65d7a28e3265b37a6474929f336521b332c1681b933f6cb9f3376673440d862a82620001f3565b620001967f5fdbd35e8da83ee755d5e62a539e5ed7f47126abede0b8b10f9ea43dc6eed07f82620001f3565b620001c27f92de27771f92d6942691d73358b3a4673e4880de8356f8f2cf452be87e02d36382620001f3565b620001ec81620001d56009600a62000937565b620001e690640165a0bc0062000948565b62000203565b50620009a4565b620001ff8282620002d4565b5050565b6001600160a01b0382166200025b5760405162461bcd60e51b815260206004820152601f60248201527f45524332303a206d696e7420746f20746865207a65726f2061646472657373006044820152606401620000fc565b62000269600083836200035e565b80600260008282546200027d919062000962565b90915550506001600160a01b038216600081815260208181526040808320805486019055518481527fddf252ad1be2c89b69c2b068fc378daa952ba7f163c4a11628f55a4df523b3ef910160405180910390a35050565b620002e082826200050f565b620001ff5760008281526009602090815260408083206001600160a01b03851684529091529020805460ff191660011790556200031a3390565b6001600160a01b0316816001600160a01b0316837f2f8788117e7eff1d82e926ec794901d17c78024a50270940304540a733656f0d60405160405180910390a45050565b6200036b8383836200053c565b600a5460ff1615620003af5760405162461bcd60e51b815260206004820152600c60248201526b1d1bdad95b881c185d5cd95960a21b6044820152606401620000fc565b600d5460ff1615620003c057505050565b6001600160a01b0383161580620003de57506001600160a01b038216155b15620003e957505050565b6001600160a01b0383166000908152600c602052604090205460ff161580156200042c57506001600160a01b0382166000908152600c602052604090205460ff16155b6200046b5760405162461bcd60e51b815260206004820152600e60248201526d30b1b1b7bab73a10333937bd32b760911b6044820152606401620000fc565b600a54610100900460ff16156200050a576001600160a01b0383166000908152600b602052604090205460ff1680620004bc57506001600160a01b0382166000908152600b602052604090205460ff165b6200050a5760405162461bcd60e51b815260206004820152601e60248201527f7472616e7366657273206c6f636b656420756e74696c206d61696e6e657400006044820152606401620000fc565b505050565b60008281526009602090815260408083206001600160a01b038516845290915290205460ff165b92915050565b6001600160a01b038316620005605762000556826200058b565b6200050a620005c3565b6001600160a01b0382166200057a5762000556836200058b565b62000585836200058b565b6200050a825b6001600160a01b03811660009081526005602090815260408083209183905290912054620005c09190620005d5565b620005d5565b50565b620005d36006620005ba60025490565b565b6000620005e162000624565b905080620005ef8462000635565b10156200050a578254600180820185556000858152602080822090930193909355938401805494850181558252902090910155565b60006200063060085490565b905090565b805460009081036200064957506000919050565b815482906200065b9060019062000978565b815481106200066e576200066e6200098e565b90600052602060002001549050919050565b6000602082840312156200069357600080fd5b81516001600160a01b0381168114620006ab57600080fd5b9392505050565b634e487b7160e01b600052604160045260246000fd5b600181811c90821680620006dd57607f821691505b602082108103620006fe57634e487b7160e01b600052602260045260246000fd5b50919050565b601f8211156200050a576000816000526020600020601f850160051c810160208610156200072f5750805b601f850160051c820191505b8181101562000750578281556001016200073b565b505050505050565b81516001600160401b03811115620007745762000774620006b2565b6200078c81620007858454620006c8565b8462000704565b602080601f831160018114620007c45760008415620007ab5750858301515b600019600386901b1c1916600185901b17855562000750565b600085815260208120601f198616915b82811015620007f557888601518255948401946001909101908401620007d4565b5085821015620008145787850151600019600388901b60f8161c191681555b5050505050600190811b01905550565b634e487b7160e01b600052601160045260246000fd5b600181815b808511156200087b5781600019048211156200085f576200085f62000824565b808516156200086d57918102915b93841c93908002906200083f565b509250929050565b600082620008945750600162000536565b81620008a35750600062000536565b8160018114620008bc5760028114620008c757620008e7565b600191505062000536565b60ff841115620008db57620008db62000824565b50506001821b62000536565b5060208310610133831016604e8410600b84101617156200090c575081810a62000536565b6200091883836200083a565b80600019048211156200092f576200092f62000824565b029392505050565b6000620006ab60ff84168362000883565b808202811582820484141762000536576200053662000824565b8082018082111562000536576200053662000824565b8181038181111562000536576200053662000824565b634e487b7160e01b600052603260045260246000fd5b611f8d80620009b46000396000f3fe608060405234801561001057600080fd5b50600436106102485760003560e01c8063679a3a221161013b578063a457c2d7116100b8578063d547741f1161007c578063d547741f14610535578063dd62ed3e14610548578063e1830f7d1461055b578063e63ab1e91461056e578063e6a07cc11461059557600080fd5b8063a457c2d7146104b2578063a9059cbb146104c5578063ac869cd8146104d8578063d0516650146104eb578063d53913931461050e57600080fd5b806391d14854116100ff57806391d148541461047457806395d89b41146104875780639711715a1461048f578063981b24d014610497578063a217fddf146104aa57600080fd5b8063679a3a22146103e65780637028e2cd1461040957806370a082311461043057806379cc6790146104595780638456cb591461046c57600080fd5b8063319a9395116101c957806340c10f191161018d57806340c10f191461038f57806342966c68146103a25780634ee2cd7e146103b55780635544e64f146103c85780635c975abb146103db57600080fd5b8063319a93951461034657806332cb6b0c1461035957806336568abe1461036157806339509351146103745780633f4ba83a1461038757600080fd5b806318160ddd1161021057806318160ddd146102e457806323b872dd146102ec578063248a9ca3146102ff5780632f2ff15d14610322578063313ce5671461033757600080fd5b806301ffc9a71461024d57806306a85f0f1461027557806306fdde03146102aa578063095ea7b3146102bf57806309fa90b3146102d2575b600080fd5b61026061025b366004611b28565b6105a8565b60405190151581526020015b60405180910390f35b61029c7f92de27771f92d6942691d73358b3a4673e4880de8356f8f2cf452be87e02d36381565b60405190815260200161026c565b6102b26105df565b60405161026c9190611b76565b6102606102cd366004611bc0565b610671565b600a5461026090610100900460ff1681565b60025461029c565b6102606102fa366004611bea565b610689565b61029c61030d366004611c26565b60009081526009602052604090206001015490565b610335610330366004611c3f565b6106ad565b005b6040516009815260200161026c565b610335610354366004611c7b565b6106d7565b61029c610737565b61033561036f366004611c3f565b610755565b610260610382366004611bc0565b6107d8565b6103356107fa565b61033561039d366004611bc0565b61082f565b6103356103b0366004611c26565b6108cf565b61029c6103c3366004611bc0565b6108d9565b6103356103d6366004611bc0565b610932565b600a5460ff16610260565b6102606103f4366004611c96565b600b6020526000908152604090205460ff1681565b61029c7f5fdbd35e8da83ee755d5e62a539e5ed7f47126abede0b8b10f9ea43dc6eed07f81565b61029c61043e366004611c96565b6001600160a01b031660009081526020819052604090205490565b610335610467366004611bc0565b610947565b61033561095c565b610260610482366004611c3f565b61098e565b6102b26109b9565b61029c6109c8565b61029c6104a5366004611c26565b610a02565b61029c600081565b6102606104c0366004611bc0565b610a2d565b6102606104d3366004611bc0565b610aa8565b6103356104e6366004611cb1565b610ab6565b6102606104f9366004611c96565b600c6020526000908152604090205460ff1681565b61029c7f9f2df0fed2c77648de5860a4cc508cd0818c85b8b8a1ab4ceeef8d981c8956a681565b610335610543366004611c3f565b610b41565b61029c610556366004611cdb565b610b66565b610335610569366004611cb1565b610b91565b61029c7f65d7a28e3265b37a6474929f336521b332c1681b933f6cb9f3376673440d862a81565b6103356105a3366004611bea565b610bf4565b60006001600160e01b03198216637965db0b60e01b14806105d957506301ffc9a760e01b6001600160e01b03198316145b92915050565b6060600380546105ee90611d05565b80601f016020809104026020016040519081016040528092919081815260200182805461061a90611d05565b80156106675780601f1061063c57610100808354040283529160200191610667565b820191906000526020600020905b81548152906001019060200180831161064a57829003601f168201915b5050505050905090565b60003361067f818585610cc5565b5060019392505050565b600033610697858285610de9565b6106a2858585610e63565b506001949350505050565b6000828152600960205260409020600101546106c881611012565b6106d2838361101c565b505050565b60006106e281611012565b600a80548315156101000261ff00199091161790556040517f68b6038d5f513a917b7f22cb9f233a3b7519992d4d9bea2c1a812a7f9d4d78b99061072b90841515815260200190565b60405180910390a15050565b6107436009600a611e31565b61075290640165a0bc00611e40565b81565b6001600160a01b03811633146107ca5760405162461bcd60e51b815260206004820152602f60248201527f416363657373436f6e74726f6c3a2063616e206f6e6c792072656e6f756e636560448201526e103937b632b9903337b91039b2b63360891b60648201526084015b60405180910390fd5b6107d482826110a2565b5050565b60003361067f8185856107eb8383610b66565b6107f59190611e57565b610cc5565b7f65d7a28e3265b37a6474929f336521b332c1681b933f6cb9f3376673440d862a61082481611012565b61082c611109565b50565b7f9f2df0fed2c77648de5860a4cc508cd0818c85b8b8a1ab4ceeef8d981c8956a661085981611012565b6108656009600a611e31565b61087490640165a0bc00611e40565b8261087e60025490565b6108889190611e57565b11156108c55760405162461bcd60e51b815260206004820152600c60248201526b18d85c08195e18d95959195960a21b60448201526064016107c1565b6106d2838361115b565b61082c3382611226565b6001600160a01b038216600090815260056020526040812081908190610900908590611364565b9150915081610927576001600160a01b038516600090815260208190526040902054610929565b805b95945050505050565b600061093d81611012565b6106d28383611226565b610952823383610de9565b6107d48282611226565b7f65d7a28e3265b37a6474929f336521b332c1681b933f6cb9f3376673440d862a61098681611012565b61082c611460565b60009182526009602090815260408084206001600160a01b0393909316845291905290205460ff1690565b6060600480546105ee90611d05565b60007f5fdbd35e8da83ee755d5e62a539e5ed7f47126abede0b8b10f9ea43dc6eed07f6109f481611012565b6109fc61149d565b91505090565b6000806000610a12846006611364565b9150915081610a2357600254610a25565b805b949350505050565b60003381610a3b8286610b66565b905083811015610a9b5760405162461bcd60e51b815260206004820152602560248201527f45524332303a2064656372656173656420616c6c6f77616e63652062656c6f77604482015264207a65726f60d81b60648201526084016107c1565b6106a28286868403610cc5565b60003361067f818585610e63565b7f92de27771f92d6942691d73358b3a4673e4880de8356f8f2cf452be87e02d363610ae081611012565b6001600160a01b0383166000818152600c6020908152604091829020805460ff191686151590811790915591519182527fd17e29b9185a00800171e680c627983f284cdf937b14ea98ef64d9b44a72f2fc91015b60405180910390a2505050565b600082815260096020526040902060010154610b5c81611012565b6106d283836110a2565b6001600160a01b03918216600090815260016020908152604080832093909416825291909152205490565b6000610b9c81611012565b6001600160a01b0383166000818152600b6020908152604091829020805460ff191686151590811790915591519182527f7a23b8ac29d2b86d4b816d80622c0c7f977e4aeeb595803953282cbcc92a1ded9101610b34565b6000610bff81611012565b6001600160a01b03841615801590610c1f57506001600160a01b03831615155b610c5a5760405162461bcd60e51b815260206004820152600c60248201526b7a65726f206164647265737360a01b60448201526064016107c1565b600d805460ff19166001179055610c72848484610e63565b600d805460ff191690556040518281526001600160a01b0384811691908616907f4c4fe4b520b7719d15df70af4fa62d1140e057c134cf7bfb52b72063da0b6a3d9060200160405180910390a350505050565b6001600160a01b038316610d275760405162461bcd60e51b8152602060048201526024808201527f45524332303a20617070726f76652066726f6d20746865207a65726f206164646044820152637265737360e01b60648201526084016107c1565b6001600160a01b038216610d885760405162461bcd60e51b815260206004820152602260248201527f45524332303a20617070726f766520746f20746865207a65726f206164647265604482015261737360f01b60648201526084016107c1565b6001600160a01b0383811660008181526001602090815260408083209487168084529482529182902085905590518481527f8c5be1e5ebec7d5bd14f71427d1e84f3dd0314c0f7b2291e5b200ac8c7c3b925910160405180910390a3505050565b6000610df58484610b66565b90506000198114610e5d5781811015610e505760405162461bcd60e51b815260206004820152601d60248201527f45524332303a20696e73756666696369656e7420616c6c6f77616e636500000060448201526064016107c1565b610e5d8484848403610cc5565b50505050565b6001600160a01b038316610ec75760405162461bcd60e51b815260206004820152602560248201527f45524332303a207472616e736665722066726f6d20746865207a65726f206164604482015264647265737360d81b60648201526084016107c1565b6001600160a01b038216610f295760405162461bcd60e51b815260206004820152602360248201527f45524332303a207472616e7366657220746f20746865207a65726f206164647260448201526265737360e81b60648201526084016107c1565b610f348383836114f7565b6001600160a01b03831660009081526020819052604090205481811015610fac5760405162461bcd60e51b815260206004820152602660248201527f45524332303a207472616e7366657220616d6f756e7420657863656564732062604482015265616c616e636560d01b60648201526084016107c1565b6001600160a01b03848116600081815260208181526040808320878703905593871680835291849020805487019055925185815290927fddf252ad1be2c89b69c2b068fc378daa952ba7f163c4a11628f55a4df523b3ef910160405180910390a3610e5d565b61082c8133611695565b611026828261098e565b6107d45760008281526009602090815260408083206001600160a01b03851684529091529020805460ff1916600117905561105e3390565b6001600160a01b0316816001600160a01b0316837f2f8788117e7eff1d82e926ec794901d17c78024a50270940304540a733656f0d60405160405180910390a45050565b6110ac828261098e565b156107d45760008281526009602090815260408083206001600160a01b0385168085529252808320805460ff1916905551339285917ff6391f5c32d9c69d2a47ea670b442974b53935d1edc7fd64eb21e047a839171b9190a45050565b6111116116ee565b600a805460ff191690557f5db9ee0a495bf2e6ff9c91a7834c1ba4fdd244a5e8aa4e537bd38aeae4b073aa335b6040516001600160a01b03909116815260200160405180910390a1565b6001600160a01b0382166111b15760405162461bcd60e51b815260206004820152601f60248201527f45524332303a206d696e7420746f20746865207a65726f20616464726573730060448201526064016107c1565b6111bd600083836114f7565b80600260008282546111cf9190611e57565b90915550506001600160a01b038216600081815260208181526040808320805486019055518481527fddf252ad1be2c89b69c2b068fc378daa952ba7f163c4a11628f55a4df523b3ef910160405180910390a35050565b6001600160a01b0382166112865760405162461bcd60e51b815260206004820152602160248201527f45524332303a206275726e2066726f6d20746865207a65726f206164647265736044820152607360f81b60648201526084016107c1565b611292826000836114f7565b6001600160a01b038216600090815260208190526040902054818110156113065760405162461bcd60e51b815260206004820152602260248201527f45524332303a206275726e20616d6f756e7420657863656564732062616c616e604482015261636560f01b60648201526084016107c1565b6001600160a01b0383166000818152602081815260408083208686039055600280548790039055518581529192917fddf252ad1be2c89b69c2b068fc378daa952ba7f163c4a11628f55a4df523b3ef910160405180910390a3505050565b600080600084116113b05760405162461bcd60e51b815260206004820152601660248201527504552433230536e617073686f743a20696420697320360541b60448201526064016107c1565b6113b8611739565b8411156114075760405162461bcd60e51b815260206004820152601d60248201527f4552433230536e617073686f743a206e6f6e6578697374656e7420696400000060448201526064016107c1565b60006114138486611749565b8454909150810361142b576000809250925050611459565b600184600101828154811061144257611442611e6a565b90600052602060002001549250925050611459565b505b9250929050565b6114686117f6565b600a805460ff191660011790557f62e78cea01bee320cd4e420270b5ea74000d11b0c9f74754ebdbfc544b05a25861113e3390565b60006114ad600880546001019055565b60006114b7611739565b90507f8030e83b04d87bef53480e26263266d6ca66863aa8506aca6f2559d18aa1cb67816040516114ea91815260200190565b60405180910390a1919050565b61150283838361183c565b600a5460ff16156115445760405162461bcd60e51b815260206004820152600c60248201526b1d1bdad95b881c185d5cd95960a21b60448201526064016107c1565b600d5460ff161561155457505050565b6001600160a01b038316158061157157506001600160a01b038216155b1561157b57505050565b6001600160a01b0383166000908152600c602052604090205460ff161580156115bd57506001600160a01b0382166000908152600c602052604090205460ff16155b6115fa5760405162461bcd60e51b815260206004820152600e60248201526d30b1b1b7bab73a10333937bd32b760911b60448201526064016107c1565b600a54610100900460ff16156106d2576001600160a01b0383166000908152600b602052604090205460ff168061164957506001600160a01b0382166000908152600b602052604090205460ff165b6106d25760405162461bcd60e51b815260206004820152601e60248201527f7472616e7366657273206c6f636b656420756e74696c206d61696e6e6574000060448201526064016107c1565b61169f828261098e565b6107d4576116ac81611884565b6116b7836020611896565b6040516020016116c8929190611e80565b60408051601f198184030181529082905262461bcd60e51b82526107c191600401611b76565b600a5460ff166117375760405162461bcd60e51b815260206004820152601460248201527314185d5cd8589b194e881b9bdd081c185d5cd95960621b60448201526064016107c1565b565b600061174460085490565b905090565b8154600090810361175c575060006105d9565b82546000905b808210156117a95760006117768383611a39565b60008781526020902090915085908201541115611795578091506117a3565b6117a0816001611e57565b92505b50611762565b6000821180156117d55750836117d2866117c4600186611ef5565b600091825260209091200190565b54145b156117ee576117e5600183611ef5565b925050506105d9565b5090506105d9565b600a5460ff16156117375760405162461bcd60e51b815260206004820152601060248201526f14185d5cd8589b194e881c185d5cd95960821b60448201526064016107c1565b6001600160a01b03831661185b5761185382611a54565b6106d2611a86565b6001600160a01b0382166118725761185383611a54565b61187b83611a54565b6106d282611a54565b60606105d96001600160a01b03831660145b606060006118a5836002611e40565b6118b0906002611e57565b67ffffffffffffffff8111156118c8576118c8611f08565b6040519080825280601f01601f1916602001820160405280156118f2576020820181803683370190505b509050600360fc1b8160008151811061190d5761190d611e6a565b60200101906001600160f81b031916908160001a905350600f60fb1b8160018151811061193c5761193c611e6a565b60200101906001600160f81b031916908160001a9053506000611960846002611e40565b61196b906001611e57565b90505b60018111156119e3576f181899199a1a9b1b9c1cb0b131b232b360811b85600f166010811061199f5761199f611e6a565b1a60f81b8282815181106119b5576119b5611e6a565b60200101906001600160f81b031916908160001a90535060049490941c936119dc81611f1e565b905061196e565b508315611a325760405162461bcd60e51b815260206004820181905260248201527f537472696e67733a20686578206c656e67746820696e73756666696369656e7460448201526064016107c1565b9392505050565b6000611a486002848418611f35565b611a3290848416611e57565b6001600160a01b0381166000908152600560209081526040808320918390529091205461082c9190611a94565b611a94565b6117376006611a8160025490565b6000611a9e611739565b905080611aaa84611ade565b10156106d2578254600180820185556000858152602080822090930193909355938401805494850181558252902090910155565b80546000908103611af157506000919050565b81548290611b0190600190611ef5565b81548110611b1157611b11611e6a565b90600052602060002001549050919050565b919050565b600060208284031215611b3a57600080fd5b81356001600160e01b031981168114611a3257600080fd5b60005b83811015611b6d578181015183820152602001611b55565b50506000910152565b6020815260008251806020840152611b95816040850160208701611b52565b601f01601f19169190910160400192915050565b80356001600160a01b0381168114611b2357600080fd5b60008060408385031215611bd357600080fd5b611bdc83611ba9565b946020939093013593505050565b600080600060608486031215611bff57600080fd5b611c0884611ba9565b9250611c1660208501611ba9565b9150604084013590509250925092565b600060208284031215611c3857600080fd5b5035919050565b60008060408385031215611c5257600080fd5b82359150611c6260208401611ba9565b90509250929050565b80358015158114611b2357600080fd5b600060208284031215611c8d57600080fd5b611a3282611c6b565b600060208284031215611ca857600080fd5b611a3282611ba9565b60008060408385031215611cc457600080fd5b611ccd83611ba9565b9150611c6260208401611c6b565b60008060408385031215611cee57600080fd5b611cf783611ba9565b9150611c6260208401611ba9565b600181811c90821680611d1957607f821691505b602082108103611d3957634e487b7160e01b600052602260045260246000fd5b50919050565b634e487b7160e01b600052601160045260246000fd5b600181815b80851115611457578160001904821115611d7657611d76611d3f565b80851615611d8357918102915b93841c9390800290611d5a565b600082611d9f575060016105d9565b81611dac575060006105d9565b8160018114611dc25760028114611dcc57611de8565b60019150506105d9565b60ff841115611ddd57611ddd611d3f565b50506001821b6105d9565b5060208310610133831016604e8410600b8410161715611e0b575081810a6105d9565b611e158383611d55565b8060001904821115611e2957611e29611d3f565b029392505050565b6000611a3260ff841683611d90565b80820281158282048414176105d9576105d9611d3f565b808201808211156105d9576105d9611d3f565b634e487b7160e01b600052603260045260246000fd5b7f416363657373436f6e74726f6c3a206163636f756e7420000000000000000000815260008351611eb8816017850160208801611b52565b7001034b99036b4b9b9b4b733903937b6329607d1b6017918401918201528351611ee9816028840160208801611b52565b01602801949350505050565b818103818111156105d9576105d9611d3f565b634e487b7160e01b600052604160045260246000fd5b600081611f2d57611f2d611d3f565b506000190190565b600082611f5257634e487b7160e01b600052601260045260246000fd5b50049056fea2646970667358221220a1e66c6851c8980f8c04def1408c9ad0772a3984c6231f03388091d4c139da1064736f6c63430008180033",
  "linkReferences": {},
  "deployedLinkReferences": {}
}