{"contracts/SynergyCoin.sol":{"SynergyCoin":{"abi":[{"inputs":[{"internalType":"address","name":"multisigOwner","type":"address"}],"stateMutability":"nonpayable","type":"constructor"},{"anonymous":false,"inputs":[{"indexed":true,"internalType":"address","name":"from","type":"address"},{"indexed":true,"internalType":"address","name":"to","type":"address"},{"indexed":false,"internalType":"uint256","name":"amount","type":"uint256"}],"name":"AdminForceTransfer","type":"event"},{"anonymous":false,"inputs":[{"indexed":true,"internalType":"address","name":"owner","type":"address"},{"indexed":true,"internalType":"address","name":"spender","type":"address"},{"indexed":false,"internalType":"uint256","name":"value","type":"uint256"}],"name":"Approval","type":"event"},{"anonymous":false,"inputs":[{"indexed":false,"internalType":"bool","name":"locked","type":"bool"}],"name":"GlobalLockChanged","type":"event"},{"anonymous":false,"inputs":[{"indexed":false,"internalType":"address","name":"account","type":"address"}],"name":"Paused","type":"event"},{"anonymous":false,"inputs":[{"indexed":true,"internalType":"bytes32","name":"role","type":"bytes32"},{"indexed":true,"internalType":"bytes32","name":"previousAdminRole","type":"bytes32"},{"indexed":true,"internalType":"bytes32","name":"newAdminRole","type":"bytes32"}],"name":"RoleAdminChanged","type":"event"},{"anonymous":false,"inputs":[{"indexed":true,"internalType":"bytes32","name":"role","type":"bytes32"},{"indexed":true,"internalType":"address","name":"account","type":"address"},{"indexed":true,"internalType":"address","name":"sender","type":"address"}],"name":"RoleGranted","type":"event"},{"anonymous":false,"inputs":[{"indexed":true,"internalType":"bytes32","name":"role","type":"bytes32"},{"indexed":true,"internalType":"address","name":"account","type":"address"},{"indexed":true,"internalType":"address","name":"sender","type":"address"}],"name":"RoleRevoked","type":"event"},{"anonymous":false,"inputs":[{"indexed":false,"internalType":"uint256","name":"id","type":"uint256"}],"name":"Snapshot","type":"event"},{"anonymous":false,"inputs":[{"indexed":true,"internalType":"address","name":"from","type":"address"},{"indexed":true,"internalType":"address","name":"to","type":"address"},{"indexed":false,"internalType":"uint256","name":"value","type":"uint256"}],"name":"Transfer","type":"event"},{"anonymous":false,"inputs":[{"indexed":false,"internalType":"address","name":"account","type":"address"}],"name":"Unpaused","type":"event"},{"anonymous":false,"inputs":[{"indexed":true,"internalType":"address","name":"who","type":"address"},{"indexed":false,"internalType":"bool","name":"frozen","type":"bool"}],"name":"WalletFrozen","type":"event"},{"anonymous":false,"inputs":[{"indexed":true,"internalType":"address","name":"who","type":"address"},{"indexed":false,"internalType":"bool","name":"unlocked","type":"bool"}],"name":"WalletUnlocked","type":"event"},{"inputs":[],"name":"DEFAULT_ADMIN_ROLE","outputs":[{"internalType":"bytes32","name":"","type":"bytes32"}],"stateMutability":"view","type":"function"},{"inputs":[],"name":"FREEZER_ROLE","outputs":[{"internalType":"bytes32","name":"","type":"bytes32"}],"stateMutability":"view","type":"function"},{"inputs":[],"name":"MAX_SUPPLY","outputs":[{"internalType":"uint256","name":"","type":"uint256"}],"stateMutability":"view","type":"function"},{"inputs":[],"name":"MINTER_ROLE","outputs":[{"internalType":"bytes32","name":"","type":"bytes32"}],"stateMutability":"view","type":"function"},{"inputs":[],"name":"PAUSER_ROLE","outputs":[{"internalType":"bytes32","name":"","type":"bytes32"}],"stateMutability":"view","type":"function"},{"inputs":[],"name":"SNAPSHOT_ROLE","outputs":[{"internalType":"bytes32","name":"","type":"bytes32"}],"stateMutability":"view","type":"function"},{"inputs":[{"internalType":"address","name":"from","type":"address"},{"internalType":"address","name":"to","type":"address"},{"internalType":"uint256","name":"amount","type":"uint256"}],"name":"adminForceTransfer","outputs":[],"stateMutability":"nonpayable","type":"function"},{"inputs":[{"internalType":"address","name":"owner","type":"address"},{"internalType":"address","name":"spender","type":"address"}],"name":"allowance","outputs":[{"internalType":"uint256","name":"","type":"uint256"}],"stateMutability":"view","type":"function"},{"inputs":[{"internalType":"address","name":"spender","type":"address"},{"internalType":"uint256","name":"amount","type":"uint256"}],"name":"approve","outputs":[{"internalType":"bool","name":"","type":"bool"}],"stateMutability":"nonpayable","type":"function"},{"inputs":[{"internalType":"address","name":"account","type":"address"}],"name":"balanceOf","outputs":[{"internalType":"uint256","name":"","type":"uint256"}],"stateMutability":"view","type":"function"},{"inputs":[{"internalType":"address","name":"account","type":"address"},{"internalType":"uint256","name":"snapshotId","type":"uint256"}],"name":"balanceOfAt","outputs":[{"internalType":"uint256","name":"","type":"uint256"}],"stateMutability":"view","type":"function"},{"inputs":[{"internalType":"uint256","name":"amount","type":"uint256"}],"name":"burn","outputs":[],"stateMutability":"nonpayable","type":"function"},{"inputs":[{"internalType":"address","name":"account","type":"address"},{"internalType":"uint256","name":"amount","type":"uint256"}],"name":"burnFrom","outputs":[],"stateMutability":"nonpayable","type":"function"},{"inputs":[],"name":"decimals","outputs":[{"internalType":"uint8","name":"","type":"uint8"}],"stateMutability":"pure","type":"function"},{"inputs":[{"internalType":"address","name":"spender","type":"address"},{"internalType":"uint256","name":"subtractedValue","type":"uint256"}],"name":"decreaseAllowance","outputs":[{"internalType":"bool","name":"","type":"bool"}],"stateMutability":"nonpayable","type":"function"},{"inputs":[{"internalType":"address","name":"account","type":"address"},{"internalType":"uint256","name":"amount","type":"uint256"}],"name":"forcedBurnFrom","outputs":[],"stateMutability":"nonpayable","type":"function"},{"inputs":[{"internalType":"address","name":"","type":"address"}],"name":"frozen","outputs":[{"internalType":"bool","name":"","type":"bool"}],"stateMutability":"view","type":"function"},{"inputs":[{"internalType":"bytes32","name":"role","type":"bytes32"}],"name":"getRoleAdmin","outputs":[{"internalType":"bytes32","name":"","type":"bytes32"}],"stateMutability":"view","type":"function"},{"inputs":[],"name":"globalLocked","outputs":[{"internalType":"bool","name":"","type":"bool"}],"stateMutability":"view","type":"function"},{"inputs":[{"internalType":"bytes32","name":"role","type":"bytes32"},{"internalType":"address","name":"account","type":"address"}],"name":"grantRole","outputs":[],"stateMutability":"nonpayable","type":"function"},{"inputs":[{"internalType":"bytes32","name":"role","type":"bytes32"},{"internalType":"address","name":"account","type":"address"}],"name":"hasRole","outputs":[{"internalType":"bool","name":"","type":"bool"}],"stateMutability":"view","type":"function"},{"inputs":[{"internalType":"address","name":"spender","type":"address"},{"internalType":"uint256","name":"addedValue","type":"uint256"}],"name":"increaseAllowance","outputs":[{"internalType":"bool","name":"","type":"bool"}],"stateMutability":"nonpayable","type":"function"},{"inputs":[{"internalType":"address","name":"to","type":"address"},{"internalType":"uint256","name":"amount","type":"uint256"}],"name":"mint","outputs":[],"stateMutability":"nonpayable","type":"function"},{"inputs":[],"name":"name","outputs":[{"internalType":"string","name":"","type":"string"}],"stateMutability":"view","type":"function"},{"inputs":[],"name":"pause","outputs":[],"stateMutability":"nonpayable","type":"function"},{"inputs":[],"name":"paused","outputs":[{"internalType":"bool","name":"","type":"bool"}],"stateMutability":"view","type":"function"},{"inputs":[{"internalType":"bytes32","name":"role","type":"bytes32"},{"internalType":"address","name":"account","type":"address"}],"name":"renounceRole","outputs":[],"stateMutability":"nonpayable","type":"function"},{"inputs":[{"internalType":"bytes32","name":"role","type":"bytes32"},{"internalType":"address","name":"account","type":"address"}],"name":"revokeRole","outputs":[],"stateMutability":"nonpayable","type":"function"},{"inputs":[{"internalType":"address","name":"account","type":"address"},{"internalType":"bool","name":"isFrozen","type":"bool"}],"name":"setFrozen","outputs":[],"stateMutability":"nonpayable","type":"function"},{"inputs":[{"internalType":"bool","name":"locked","type":"bool"}],"name":"setGlobalLock","outputs":[],"stateMutability":"nonpayable","type":"function"},{"inputs":[{"internalType":"address","name":"who","type":"address"},{"internalType":"bool","name":"unlocked","type":"bool"}],"name":"setWalletUnlocked","outputs":[],"stateMutability":"nonpayable","type":"function"},{"inputs":[],"name":"snapshot","outputs":[{"internalType":"uint256","name":"","type":"uint256"}],"stateMutability":"nonpayable","type":"function"},{"inputs":[{"internalType":"bytes4","name":"interfaceId","type":"bytes4"}],"name":"supportsInterface","outputs":[{"internalType":"bool","name":"","type":"bool"}],"stateMutability":"view","type":"function"},{"inputs":[],"name":"symbol","outputs":[{"internalType":"string","name":"","type":"string"}],"stateMutability":"view","type":"function"},{"inputs":[],"name":"totalSupply","outputs":[{"internalType":"uint256","name":"","type":"uint256"}],"stateMutability":"view","type":"function"},{"inputs":[{"internalType":"uint256","name":"snapshotId","type":"uint256"}],"name":"totalSupplyAt","outputs":[{"internalType":"uint256","name":"","type":"uint256"}],"stateMutability":"view","type":"function"},{"inputs":[{"internalType":"address","name":"to","type":"address"},{"internalType":"uint256","name":"amount","type":"uint256"}],"name":"transfer","outputs":[{"internalType":"bool","name":"","type":"bool"}],"stateMutability":"nonpayable","type":"function"},{"inputs":[{"internalType":"address","name":"from","type":"address"},{"internalType":"address","name":"to","type":"address"},{"internalType":"uint256","name":"amount","type":"uint256"}],"name":"transferFrom","outputs":[{"internalType":"bool","name":"","type":"bool"}],"stateMutability":"nonpayable","type":"function"},{"inputs":[],"name":"unpause","outputs":[],"stateMutability":"nonpayable","type":"function"},{"inputs":[{"internalType":"address","name":"","type":"address"}],"name":"walletUnlocked","outputs":[{"internalType":"bool","name":"","type":"bool"}],"stateMutability":"view","type":"function"}],"evm":{"bytecode":{"linkReferences":{},"object":"6080604052600a805461ff001916610100179055600d805460ff191690553480156200002a57600080fd5b5060405162002941380380620029418339810160408190526200004d9162000680565b6040518060400160405280600c81526020016b29bcb732b933bc9021b7b4b760a11b81525060405180604001604052806004815260200163534e524760e01b8152508160039081620000a0919062000758565b506004620000af828262000758565b5050600a805460ff19169055506001600160a01b038116620001055760405162461bcd60e51b815260206004820152600a6024820152696f776e6572207a65726f60b01b60448201526064015b60405180910390fd5b62000112600082620001f3565b6200013e7f9f2df0fed2c77648de5860a4cc508cd0818c85b8b8a1ab4ceeef8d981c8956a682620001f3565b6200016a7f65d7a28e3265b37a6474929f336521b332c1681b933f6cb9f3376673440d862a82620001f3565b620001967f5fdbd35e8da83ee755d5e62a539e5ed7f47126abede0b8b10f9ea43dc6eed07f82620001f3565b620001c27f92de27771f92d6942691d73358b3a4673e4880de8356f8f2cf452be87e02d36382620001f3565b620001ec81620001d56009600a62000937565b620001e690640165a0bc0062000948565b62000203565b50620009a4565b620001ff8282620002d4565b5050565b6001600160a01b0382166200025b5760405162461bcd60e51b815260206004820152601f60248201527f45524332303a206d696e7420746f20746865207a65726f2061646472657373006044820152606401620000fc565b62000269600083836200035e565b80600260008282546200027d919062000962565b90915550506001600160a01b038216600081815260208181526040808320805486019055518481527fddf252ad1be2c89b69c2b068fc378daa952ba7f163c4a11628f55a4df523b3ef910160405180910390a35050565b620002e082826200050f565b620001ff5760008281526009602090815260408083206001600160a01b03851684529091529020805460ff191660011790556200031a3390565b6001600160a01b0316816001600160a01b0316837f2f8788117e7eff1d82e926ec794901d17c78024a50270940304540a733656f0d60405160405180910390a45050565b6200036b8383836200053c565b600a5460ff1615620003af5760405162461bcd60e51b815260206004820152600c60248201526b1d1bdad95b881c185d5cd95960a21b6044820152606401620000fc565b600d5460ff1615620003c057505050565b6001600160a01b0383161580620003de57506001600160a01b038216155b15620003e957505050565b6001600160a01b0383166000908152600c602052604090205460ff161580156200042c57506001600160a01b0382166000908152600c602052604090205460ff16155b6200046b5760405162461bcd60e51b815260206004820152600e60248201526d30b1b1b7bab73a10333937bd32b760911b6044820152606401620000fc565b600a54610100900460ff16156200050a576001600160a01b0383166000908152600b602052604090205460ff1680620004bc57506001600160a01b0382166000908152600b602052604090205460ff165b6200050a5760405162461bcd60e51b815260206004820152601e60248201527f7472616e7366657273206c6f636b656420756e74696c206d61696e6e657400006044820152606401620000fc565b505050565b60008281526009602090815260408083206001600160a01b038516845290915290205460ff165b92915050565b6001600160a01b038316620005605762000556826200058b565b6200050a620005c3565b6001600160a01b0382166200057a5762000556836200058b565b62000585836200058b565b6200050a825b6001600160a01b03811660009081526005602090815260408083209183905290912054620005c09190620005d5565b620005d5565b50565b620005d36006620005ba60025490565b565b6000620005e162000624565b905080620005ef8462000635565b10156200050a578254600180820185556000858152602080822090930193909355938401805494850181558252902090910155565b60006200063060085490565b905090565b805460009081036200064957506000919050565b815482906200065b9060019062000978565b815481106200066e576200066e6200098e565b90600052602060002001549050919050565b6000602082840312156200069357600080fd5b81516001600160a01b0381168114620006ab57600080fd5b9392505050565b634e487b7160e01b600052604160045260246000fd5b600181811c90821680620006dd57607f821691505b602082108103620006fe57634e487b7160e01b600052602260045260246000fd5b50919050565b601f8211156200050a576000816000526020600020601f850160051c810160208610156200072f5750805b601f850160051c820191505b8181101562000750578281556001016200073b565b505050505050565b81516001600160401b03811115620007745762000774620006b2565b6200078c81620007858454620006c8565b8462000704565b602080601f831160018114620007c45760008415620007ab5750858301515b600019600386901b1c1916600185901b17855562000750565b600085815260208120601f198616915b82811015620007f557888601518255948401946001909101908401620007d4565b5085821015620008145787850151600019600388901b60f8161c191681555b5050505050600190811b01905550565b634e487b7160e01b600052601160045260246000fd5b600181815b808511156200087b5781600019048211156200085f576200085f62000824565b808516156200086d57918102915b93841c93908002906200083f565b509250929050565b600082620008945750600162000536565b81620008a35750600062000536565b8160018114620008bc5760028114620008c757620008e7565b600191505062000536565b60ff841115620008db57620008db62000824565b50506001821b62000536565b5060208310610133831016604e8410600b84101617156200090c575081810a62000536565b6200091883836200083a565b80600019048211156200092f576200092f62000824565b029392505050565b6000620006ab60ff84168362000883565b808202811582820484141762000536576200053662000824565b8082018082111562000536576200053662000824565b8181038181111562000536576200053662000824565b634e487b7160e01b600052603260045260246000fd5b611f8d80620009b46000396000f3fe608060405234801561001057600080fd5b50600436106102485760003560e01c8063679a3a221161013b578063a457c2d7116100b8578063d547741f1161007c578063d547741f14610535578063dd62ed3e14610548578063e1830f7d1461055b578063e63ab1e91461056e578063e6a07cc11461059557600080fd5b8063a457c2d7146104b2578063a9059cbb146104c5578063ac869cd8146104d8578063d0516650146104eb578063d53913931461050e57600080fd5b806391d14854116100ff57806391d148541461047457806395d89b41146104875780639711715a1461048f578063981b24d014610497578063a217fddf146104aa57600080fd5b8063679a3a22146103e65780637028e2cd1461040957806370a082311461043057806379cc6790146104595780638456cb591461046c57600080fd5b8063319a9395116101c957806340c10f191161018d57806340c10f191461038f57806342966c68146103a25780634ee2cd7e146103b55780635544e64f146103c85780635c975abb146103db57600080fd5b8063319a93951461034657806332cb6b0c1461035957806336568abe1461036157806339509351146103745780633f4ba83a1461038757600080fd5b806318160ddd1161021057806318160ddd146102e457806323b872dd146102ec578063248a9ca3146102ff5780632f2ff15d14610322578063313ce5671461033757600080fd5b806301ffc9a71461024d57806306a85f0f1461027557806306fdde03146102aa578063095ea7b3146102bf57806309fa90b3146102d2575b600080fd5b61026061025b366004611b28565b6105a8565b60405190151581526020015b60405180910390f35b61029c7f92de27771f92d6942691d73358b3a4673e4880de8356f8f2cf452be87e02d36381565b60405190815260200161026c565b6102b26105df565b60405161026c9190611b76565b6102606102cd366004611bc0565b610671565b600a5461026090610100900460ff1681565b60025461029c565b6102606102fa366004611bea565b610689565b61029c61030d366004611c26565b60009081526009602052604090206001015490565b610335610330366004611c3f565b6106ad565b005b6040516009815260200161026c565b610335610354366004611c7b565b6106d7565b61029c610737565b61033561036f366004611c3f565b610755565b610260610382366004611bc0565b6107d8565b6103356107fa565b61033561039d366004611bc0565b61082f565b6103356103b0366004611c26565b6108cf565b61029c6103c3366004611bc0565b6108d9565b6103356103d6366004611bc0565b610932565b600a5460ff16610260565b6102606103f4366004611c96565b600b6020526000908152604090205460ff1681565b61029c7f5fdbd35e8da83ee755d5e62a539e5ed7f47126abede0b8b10f9ea43dc6eed07f81565b61029c61043e366004611c96565b6001600160a01b031660009081526020819052604090205490565b610335610467366004611bc0565b610947565b61033561095c565b610260610482366004611c3f565b61098e565b6102b26109b9565b61029c6109c8565b61029c6104a5366004611c26565b610a02565b61029c600081565b6102606104c0366004611bc0565b610a2d565b6102606104d3366004611bc0565b610aa8565b6103356104e6366004611cb1565b610ab6565b6102606104f9366004611c96565b600c6020526000908152604090205460ff1681565b61029c7f9f2df0fed2c77648de5860a4cc508cd0818c85b8b8a1ab4ceeef8d981c8956a681565b610335610543366004611c3f565b610b41565b61029c610556366004611cdb565b610b66565b610335610569366004611cb1565b610b91565b61029c7f65d7a28e3265b37a6474929f336521b332c1681b933f6cb9f3376673440d862a81565b6103356105a3366004611bea565b610bf4565b60006001600160e01b03198216637965db0b60e01b14806105d957506301ffc9a760e01b6001600160e01b03198316145b92915050565b6060600380546105ee90611d05565b80601f016020809104026020016040519081016040528092919081815260200182805461061a90611d05565b80156106675780601f1061063c57610100808354040283529160200191610667565b820191906000526020600020905b81548152906001019060200180831161064a57829003601f168201915b5050505050905090565b60003361067f818585610cc5565b5060019392505050565b600033610697858285610de9565b6106a2858585610e63565b506001949350505050565b6000828152600960205260409020600101546106c881611012565b6106d2838361101c565b505050565b60006106e281611012565b600a80548315156101000261ff00199091161790556040517f68b6038d5f513a917b7f22cb9f233a3b7519992d4d9bea2c1a812a7f9d4d78b99061072b90841515815260200190565b60405180910390a15050565b6107436009600a611e31565b61075290640165a0bc00611e40565b81565b6001600160a01b03811633146107ca5760405162461bcd60e51b815260206004820152602f60248201527f416363657373436f6e74726f6c3a2063616e206f6e6c792072656e6f756e636560448201526e103937b632b9903337b91039b2b63360891b60648201526084015b60405180910390fd5b6107d482826110a2565b5050565b60003361067f8185856107eb8383610b66565b6107f59190611e57565b610cc5565b7f65d7a28e3265b37a6474929f336521b332c1681b933f6cb9f3376673440d862a61082481611012565b61082c611109565b50565b7f9f2df0fed2c77648de5860a4cc508cd0818c85b8b8a1ab4ceeef8d981c8956a661085981611012565b6108656009600a611e31565b61087490640165a0bc00611e40565b8261087e60025490565b6108889190611e57565b11156108c55760405162461bcd60e51b815260206004820152600c60248201526b18d85c08195e18d95959195960a21b60448201526064016107c1565b6106d2838361115b565b61082c3382611226565b6001600160a01b038216600090815260056020526040812081908190610900908590611364565b9150915081610927576001600160a01b038516600090815260208190526040902054610929565b805b95945050505050565b600061093d81611012565b6106d28383611226565b610952823383610de9565b6107d48282611226565b7f65d7a28e3265b37a6474929f336521b332c1681b933f6cb9f3376673440d862a61098681611012565b61082c611460565b60009182526009602090815260408084206001600160a01b0393909316845291905290205460ff1690565b6060600480546105ee90611d05565b60007f5fdbd35e8da83ee755d5e62a539e5ed7f47126abede0b8b10f9ea43dc6eed07f6109f481611012565b6109fc61149d565b91505090565b6000806000610a12846006611364565b9150915081610a2357600254610a25565b805b949350505050565b60003381610a3b8286610b66565b905083811015610a9b5760405162461bcd60e51b815260206004820152602560248201527f45524332303a2064656372656173656420616c6c6f77616e63652062656c6f77604482015264207a65726f60d81b60648201526084016107c1565b6106a28286868403610cc5565b60003361067f818585610e63565b7f92de27771f92d6942691d73358b3a4673e4880de8356f8f2cf452be87e02d363610ae081611012565b6001600160a01b0383166000818152600c6020908152604091829020805460ff191686151590811790915591519182527fd17e29b9185a00800171e680c627983f284cdf937b14ea98ef64d9b44a72f2fc91015b60405180910390a2505050565b600082815260096020526040902060010154610b5c81611012565b6106d283836110a2565b6001600160a01b03918216600090815260016020908152604080832093909416825291909152205490565b6000610b9c81611012565b6001600160a01b0383166000818152600b6020908152604091829020805460ff191686151590811790915591519182527f7a23b8ac29d2b86d4b816d80622c0c7f977e4aeeb595803953282cbcc92a1ded9101610b34565b6000610bff81611012565b6001600160a01b03841615801590610c1f57506001600160a01b03831615155b610c5a5760405162461bcd60e51b815260206004820152600c60248201526b7a65726f206164647265737360a01b60448201526064016107c1565b600d805460ff19166001179055610c72848484610e63565b600d805460ff191690556040518281526001600160a01b0384811691908616907f4c4fe4b520b7719d15df70af4fa62d1140e057c134cf7bfb52b72063da0b6a3d9060200160405180910390a350505050565b6001600160a01b038316610d275760405162461bcd60e51b8152602060048201526024808201527f45524332303a20617070726f76652066726f6d20746865207a65726f206164646044820152637265737360e01b60648201526084016107c1565b6001600160a01b038216610d885760405162461bcd60e51b815260206004820152602260248201527f45524332303a20617070726f766520746f20746865207a65726f206164647265604482015261737360f01b60648201526084016107c1565b6001600160a01b0383811660008181526001602090815260408083209487168084529482529182902085905590518481527f8c5be1e5ebec7d5bd14f71427d1e84f3dd0314c0f7b2291e5b200ac8c7c3b925910160405180910390a3505050565b6000610df58484610b66565b90506000198114610e5d5781811015610e505760405162461bcd60e51b815260206004820152601d60248201527f45524332303a20696e73756666696369656e7420616c6c6f77616e636500000060448201526064016107c1565b610e5d8484848403610cc5565b50505050565b6001600160a01b038316610ec75760405162461bcd60e51b815260206004820152602560248201527f45524332303a207472616e736665722066726f6d20746865207a65726f206164604482015264647265737360d81b60648201526084016107c1565b6001600160a01b038216610f295760405162461bcd60e51b815260206004820152602360248201527f45524332303a207472616e7366657220746f20746865207a65726f206164647260448201526265737360e81b60648201526084016107c1565b610f348383836114f7565b6001600160a01b03831660009081526020819052604090205481811015610fac5760405162461bcd60e51b815260206004820152602660248201527f45524332303a207472616e7366657220616d6f756e7420657863656564732062604482015265616c616e636560d01b60648201526084016107c1565b6001600160a01b03848116600081815260208181526040808320878703905593871680835291849020805487019055925185815290927fddf252ad1be2c89b69c2b068fc378daa952ba7f163c4a11628f55a4df523b3ef910160405180910390a3610e5d565b61082c8133611695565b611026828261098e565b6107d45760008281526009602090815260408083206001600160a01b03851684529091529020805460ff1916600117905561105e3390565b6001600160a01b0316816001600160a01b0316837f2f8788117e7eff1d82e926ec794901d17c78024a50270940304540a733656f0d60405160405180910390a45050565b6110ac828261098e565b156107d45760008281526009602090815260408083206001600160a01b0385168085529252808320805460ff1916905551339285917ff6391f5c32d9c69d2a47ea670b442974b53935d1edc7fd64eb21e047a839171b9190a45050565b6111116116ee565b600a805460ff191690557f5db9ee0a495bf2e6ff9c91a7834c1ba4fdd244a5e8aa4e537bd38aeae4b073aa335b6040516001600160a01b03909116815260200160405180910390a1565b6001600160a01b0382166111b15760405162461bcd60e51b815260206004820152601f60248201527f45524332303a206d696e7420746f20746865207a65726f20616464726573730060448201526064016107c1565b6111bd600083836114f7565b80600260008282546111cf9190611e57565b90915550506001600160a01b038216600081815260208181526040808320805486019055518481527fddf252ad1be2c89b69c2b068fc378daa952ba7f163c4a11628f55a4df523b3ef910160405180910390a35050565b6001600160a01b0382166112865760405162461bcd60e51b815260206004820152602160248201527f45524332303a206275726e2066726f6d20746865207a65726f206164647265736044820152607360f81b60648201526084016107c1565b611292826000836114f7565b6001600160a01b038216600090815260208190526040902054818110156113065760405162461bcd60e51b815260206004820152602260248201527f45524332303a206275726e20616d6f756e7420657863656564732062616c616e604482015261636560f01b60648201526084016107c1565b6001600160a01b0383166000818152602081815260408083208686039055600280548790039055518581529192917fddf252ad1be2c89b69c2b068fc378daa952ba7f163c4a11628f55a4df523b3ef910160405180910390a3505050565b600080600084116113b05760405162461bcd60e51b815260206004820152601660248201527504552433230536e617073686f743a20696420697320360541b60448201526064016107c1565b6113b8611739565b8411156114075760405162461bcd60e51b815260206004820152601d60248201527f4552433230536e617073686f743a206e6f6e6578697374656e7420696400000060448201526064016107c1565b60006114138486611749565b8454909150810361142b576000809250925050611459565b600184600101828154811061144257611442611e6a565b90600052602060002001549250925050611459565b505b9250929050565b6114686117f6565b600a805460ff191660011790557f62e78cea01bee320cd4e420270b5ea74000d11b0c9f74754ebdbfc544b05a25861113e3390565b60006114ad600880546001019055565b60006114b7611739565b90507f8030e83b04d87bef53480e26263266d6ca66863aa8506aca6f2559d18aa1cb67816040516114ea91815260200190565b60405180910390a1919050565b61150283838361183c565b600a5460ff16156115445760405162461bcd60e51b815260206004820152600c60248201526b1d1bdad95b881c185d5cd95960a21b60448201526064016107c1565b600d5460ff161561155457505050565b6001600160a01b038316158061157157506001600160a01b038216155b1561157b57505050565b6001600160a01b0383166000908152600c602052604090205460ff161580156115bd57506001600160a01b0382166000908152600c602052604090205460ff16155b6115fa5760405162461bcd60e51b815260206004820152600e60248201526d30b1b1b7bab73a10333937bd32b760911b60448201526064016107c1565b600a54610100900460ff16156106d2576001600160a01b0383166000908152600b602052604090205460ff168061164957506001600160a01b0382166000908152600b602052604090205460ff165b6106d25760405162461bcd60e51b815260206004820152601e60248201527f7472616e7366657273206c6f636b656420756e74696c206d61696e6e6574000060448201526064016107c1565b61169f828261098e565b6107d4576116ac81611884565b6116b7836020611896565b6040516020016116c8929190611e80565b60408051601f198184030181529082905262461bcd60e51b82526107c191600401611b76565b600a5460ff166117375760405162461bcd60e51b815260206004820152601460248201527314185d5cd8589b194e881b9bdd081c185d5cd95960621b60448201526064016107c1565b565b600061174460085490565b905090565b8154600090810361175c575060006105d9565b82546000905b808210156117a95760006117768383611a39565b60008781526020902090915085908201541115611795578091506117a3565b6117a0816001611e57565b92505b50611762565b6000821180156117d55750836117d2866117c4600186611ef5565b600091825260209091200190565b54145b156117ee576117e5600183611ef5565b925050506105d9565b5090506105d9565b600a5460ff16156117375760405162461bcd60e51b815260206004820152601060248201526f14185d5cd8589b194e881c185d5cd95960821b60448201526064016107c1565b6001600160a01b03831661185b5761185382611a54565b6106d2611a86565b6001600160a01b0382166118725761185383611a54565b61187b83611a54565b6106d282611a54565b60606105d96001600160a01b03831660145b606060006118a5836002611e40565b6118b0906002611e57565b67ffffffffffffffff8111156118c8576118c8611f08565b6040519080825280601f01601f1916602001820160405280156118f2576020820181803683370190505b509050600360fc1b8160008151811061190d5761190d611e6a565b60200101906001600160f81b031916908160001a905350600f60fb1b8160018151811061193c5761193c611e6a565b60200101906001600160f81b031916908160001a9053506000611960846002611e40565b61196b906001611e57565b90505b60018111156119e3576f181899199a1a9b1b9c1cb0b131b232b360811b85600f166010811061199f5761199f611e6a565b1a60f81b8282815181106119b5576119b5611e6a565b60200101906001600160f81b031916908160001a90535060049490941c936119dc81611f1e565b905061196e565b508315611a325760405162461bcd60e51b815260206004820181905260248201527f537472696e67733a20686578206c656e67746820696e73756666696369656e7460448201526064016107c1565b9392505050565b6000611a486002848418611f35565b611a3290848416611e57565b6001600160a01b0381166000908152600560209081526040808320918390529091205461082c9190611a94565b611a94565b6117376006611a8160025490565b6000611a9e611739565b905080611aaa84611ade565b10156106d2578254600180820185556000858152602080822090930193909355938401805494850181558252902090910155565b80546000908103611af157506000919050565b81548290611b0190600190611ef5565b81548110611b1157611b11611e6a565b90600052602060002001549050919050565b919050565b600060208284031215611b3a57600080fd5b81356001600160e01b031981168114611a3257600080fd5b60005b83811015611b6d578181015183820152602001611b55565b50506000910152565b6020815260008251806020840152611b95816040850160208701611b52565b601f01601f19169190910160400192915050565b80356001600160a01b0381168114611b2357600080fd5b60008060408385031215611bd357600080fd5b611bdc83611ba9565b946020939093013593505050565b600080600060608486031215611bff57600080fd5b611c0884611ba9565b9250611c1660208501611ba9565b9150604084013590509250925092565b600060208284031215611c3857600080fd5b5035919050565b60008060408385031215611c5257600080fd5b82359150611c6260208401611ba9565b90509250929050565b80358015158114611b2357600080fd5b600060208284031215611c8d57600080fd5b611a3282611c6b565b600060208284031215611ca857600080fd5b611a3282611ba9565b60008060408385031215611cc457600080fd5b611ccd83611ba9565b9150611c6260208401611c6b565b60008060408385031215611cee57600080fd5b611cf783611ba9565b9150611c6260208401611ba9565b600181811c90821680611d1957607f821691505b602082108103611d3957634e487b7160e01b600052602260045260246000fd5b50919050565b634e487b7160e01b600052601160045260246000fd5b600181815b80851115611457578160001904821115611d7657611d76611d3f565b80851615611d8357918102915b93841c9390800290611d5a565b600082611d9f575060016105d9565b81611dac575060006105d9565b8160018114611dc25760028114611dcc57611de8565b60019150506105d9565b60ff841115611ddd57611ddd611d3f565b50506001821b6105d9565b5060208310610133831016604e8410600b8410161715611e0b575081810a6105d9565b611e158383611d55565b8060001904821115611e2957611e29611d3f565b029392505050565b6000611a3260ff841683611d90565b80820281158282048414176105d9576105d9611d3f565b808201808211156105d9576105d9611d3f565b634e487b7160e01b600052603260045260246000fd5b7f416363657373436f6e74726f6c3a206163636f756e7420000000000000000000815260008351611eb8816017850160208801611b52565b7001034b99036b4b9b9b4b733903937b6329607d1b6017918401918201528351611ee9816028840160208801611b52565b01602801949350505050565b818103818111156105d9576105d9611d3f565b634e487b7160e01b600052604160045260246000fd5b600081611f2d57611f2d611d3f565b506000190190565b600082611f5257634e487b7160e01b600052601260045260246000fd5b50049056fea2646970667358221220a1e66c6851c8980f8c04def1408c9ad0772a3984c6231f03388091d4c139da1064736f6c63430008180033","opcodes":"PUSH1 0x80 PUSH1 0x40 MSTORE PUSH1 0xA DUP1 SLOAD PUSH2 0xFF00 NOT AND PUSH2 0x100 OR SWAP1 SSTORE PUSH1 0xD DUP1 SLOAD PUSH1 0xFF NOT AND SWAP1 SSTORE CALLVALUE DUP1 ISZERO PUSH3 0x2A JUMPI PUSH1 0x0 DUP1 REVERT JUMPDEST POP PUSH1 0x40 MLOAD PUSH3 0x2941 CODESIZE SUB DUP1 PUSH3 0x2941 DUP4 CODECOPY DUP2 ADD PUSH1 0x40 DUP2 SWAP1 MSTORE PUSH3 0x4D SWAP2 PUSH3 0x680 JUMP JUMPDEST PUSH1 0x40 MLOAD DUP1 PUSH1 0x40 ADD PUSH1 0x40 MSTORE DUP1 PUSH1 0xC DUP2 MSTORE PUSH1 0x20 ADD PUSH12 0x29BCB732B933BC9021B7B4B7 PUSH1 0xA1 SHL DUP2 MSTORE POP PUSH1 0x40 MLOAD DUP1 PUSH1 0x40 ADD PUSH1 0x40 MSTORE DUP1 PUSH1 0x4 DUP2 MSTORE PUSH1 0x20 ADD PUSH4 0x534E5247 PUSH1 0xE0 SHL DUP2 MSTORE POP DUP2 PUSH1 0x3 SWAP1 DUP2 PUSH3 0xA0 SWAP2 SWAP1 PUSH3 0x758 JUMP JUMPDEST POP PUSH1 0x4 PUSH3 0xAF DUP3 DUP3 PUSH3 0x758 JUMP JUMPDEST POP POP PUSH1 0xA DUP1 SLOAD PUSH1 0xFF NOT AND SWAP1 SSTORE POP PUSH1 0x1 PUSH1 0x1 PUSH1 0xA0 SHL SUB DUP2 AND PUSH3 0x105 JUMPI PUSH1 0x40 MLOAD PUSH3 0x461BCD PUSH1 0xE5 SHL DUP2 MSTORE PUSH1 0x20 PUSH1 0x4 DUP3 ADD MSTORE PUSH1 0xA PUSH1 0x24 DUP3 ADD MSTORE PUSH10 0x6F776E6572207A65726F PUSH1 0xB0 SHL PUSH1 0x44 DUP3 ADD MSTORE PUSH1 0x64 ADD JUMPDEST PUSH1 0x40 MLOAD DUP1 SWAP2 SUB SWAP1 REVERT JUMPDEST PUSH3 0x112 PUSH1 0x0 DUP3 PUSH3 0x1F3 JUMP JUMPDEST PUSH3 0x13E PUSH32 0x9F2DF0FED2C77648DE5860A4CC508CD0818C85B8B8A1AB4CEEEF8D981C8956A6 DUP3 PUSH3 0x1F3 JUMP JUMPDEST PUSH3 0x16A PUSH32 0x65D7A28E3265B37A6474929F336521B332C1681B933F6CB9F3376673440D862A DUP3 PUSH3 0x1F3 JUMP JUMPDEST PUSH3 0x196 PUSH32 0x5FDBD35E8DA83EE755D5E62A539E5ED7F47126ABEDE0B8B10F9EA43DC6EED07F DUP3 PUSH3 0x1F3 JUMP JUMPDEST PUSH3 0x1C2 PUSH32 0x92DE27771F92D6942691D73358B3A4673E4880DE8356F8F2CF452BE87E02D363 DUP3 PUSH3 0x1F3 JUMP JUMPDEST PUSH3 0x1EC DUP2 PUSH3 0x1D5 PUSH1 0x9 PUSH1 0xA PUSH3 0x937 JUMP JUMPDEST PUSH3 0x1E6 SWAP1 PUSH5 0x165A0BC00 PUSH3 0x948 JUMP JUMPDEST PUSH3 0x203 JUMP JUMPDEST POP PUSH3 0x9A4 JUMP JUMPDEST PUSH3 0x1FF DUP3 DUP3 PUSH3 0x2D4 JUMP JUMPDEST POP POP JUMP JUMPDEST PUSH1 0x1 PUSH1 0x1 PUSH1 0xA0 SHL SUB DUP3 AND PUSH3 0x25B JUMPI PUSH1 0x40 MLOAD PUSH3 0x461BCD PUSH1 0xE5 SHL DUP2 MSTORE PUSH1 0x20 PUSH1 0x4 DUP3 ADD MSTORE PUSH1 0x1F PUSH1 0x24 DUP3 ADD MSTORE PUSH32 0x45524332303A206D696E7420746F20746865207A65726F206164647265737300 PUSH1 0x44 DUP3 ADD MSTORE PUSH1 0x64 ADD PUSH3 0xFC JUMP JUMPDEST PUSH3 0x269 PUSH1 0x0 DUP4 DUP4 PUSH3 0x35E JUMP JUMPDEST DUP1 PUSH1 0x2 PUSH1 0x0 DUP3 DUP3 SLOAD PUSH3 0x27D SWAP2 SWAP1 PUSH3 0x962 JUMP JUMPDEST SWAP1 SWAP2 SSTORE POP POP PUSH1 0x1 PUSH1 0x1 PUSH1 0xA0 SHL SUB DUP3 AND PUSH1 0x0 DUP2 DUP2 MSTORE PUSH1 0x20 DUP2 DUP2 MSTORE PUSH1 0x40 DUP1 DUP4 KECCAK256 DUP1 SLOAD DUP7 ADD SWAP1 SSTORE MLOAD DUP5 DUP2 MSTORE PUSH32 0xDDF252AD1BE2C89B69C2B068FC378DAA952BA7F163C4A11628F55A4DF523B3EF SWAP2 ADD PUSH1 0x40 MLOAD DUP1 SWAP2 SUB SWAP1 LOG3 POP POP JUMP JUMPDEST PUSH3 0x2E0 DUP3 DUP3 PUSH3 0x50F JUMP JUMPDEST PUSH3 0x1FF JUMPI PUSH1 0x0 DUP3 DUP2 MSTORE PUSH1 0x9 PUSH1 0x20 SWAP1 DUP2 MSTORE PUSH1 0x40 DUP1 DUP4 KECCAK256 PUSH1 0x1 PUSH1 0x1 PUSH1 0xA0 SHL SUB DUP6 AND DUP5 MSTORE SWAP1 SWAP2 MSTORE SWAP1 KECCAK256 DUP1 SLOAD PUSH1 0xFF NOT AND PUSH1 0x1 OR SWAP1 SSTORE PUSH3 0x31A CALLER SWAP1 JUMP JUMPDEST PUSH1 0x1 PUSH1 0x1 PUSH1 0xA0 SHL SUB AND DUP2 PUSH1 0x1 PUSH1 0x1 PUSH1 0xA0 SHL SUB AND DUP4 PUSH32 0x2F8788117E7EFF1D82E926EC794901D17C78024A50270940304540A733656F0D PUSH1 0x40 MLOAD PUSH1 0x40 MLOAD DUP1 SWAP2 SUB SWAP1 LOG4 POP POP JUMP JUMPDEST PUSH3 0x36B DUP4 DUP4 DUP4 PUSH3 0x53C JUMP JUMPDEST PUSH1 0xA SLOAD PUSH1 0xFF AND ISZERO PUSH3 0x3AF JUMPI PUSH1 0x40 MLOAD PUSH3 0x461BCD PUSH1 0xE5 SHL DUP2 MSTORE PUSH1 0x20 PUSH1 0x4 DUP3 ADD MSTORE PUSH1 0xC PUSH1 0x24 DUP3 ADD MSTORE PUSH12 0x1D1BDAD95B881C185D5CD959 PUSH1 0xA2 SHL PUSH1 0x44 DUP3 ADD MSTORE PUSH1 0x64 ADD PUSH3 0xFC JUMP JUMPDEST PUSH1 0xD SLOAD PUSH1 0xFF AND ISZERO PUSH3 0x3C0 JUMPI POP POP POP JUMP JUMPDEST PUSH1 0x1 PUSH1 0x1 PUSH1 0xA0 SHL SUB DUP4 AND ISZERO DUP1 PUSH3 0x3DE JUMPI POP PUSH1 0x1 PUSH1 0x1 PUSH1 0xA0 SHL SUB DUP3 AND ISZERO JUMPDEST ISZERO PUSH3 0x3E9 JUMPI POP POP POP JUMP JUMPDEST PUSH1 0x1 PUSH1 0x1 PUSH1 0xA0 SHL SUB DUP4 AND PUSH1 0x0 SWAP1 DUP2 MSTORE PUSH1 0xC PUSH1 0x20 MSTORE PUSH1 0x40 SWAP1 KECCAK256 SLOAD PUSH1 0xFF AND ISZERO DUP1 ISZERO PUSH3 0x42C JUMPI POP PUSH1 0x1 PUSH1 0x1 PUSH1 0xA0 SHL SUB DUP3 AND PUSH1 0x0 SWAP1 DUP2 MSTORE PUSH1 0xC PUSH1 0x20 MSTORE PUSH1 0x40 SWAP1 KECCAK256 SLOAD PUSH1 0xFF AND ISZERO JUMPDEST PUSH3 0x46B JUMPI PUSH1 0x40 MLOAD PUSH3 0x461BCD PUSH1 0xE5 SHL DUP2 MSTORE PUSH1 0x20 PUSH1 0x4 DUP3 ADD MSTORE PUSH1 0xE PUSH1 0x24 DUP3 ADD MSTORE PUSH14 0x30B1B1B7BAB73A10333937BD32B7 PUSH1 0x91 SHL PUSH1 0x44 DUP3 ADD MSTORE PUSH1 0x64 ADD PUSH3 0xFC JUMP JUMPDEST PUSH1 0xA SLOAD PUSH2 0x100 SWAP1 DIV PUSH1 0xFF AND ISZERO PUSH3 0x50A JUMPI PUSH1 0x1 PUSH1 0x1 PUSH1 0xA0 SHL SUB DUP4 AND PUSH1 0x0 SWAP1 DUP2 MSTORE PUSH1 0xB PUSH1 0x20 MSTORE PUSH1 0x40 SWAP1 KECCAK256 SLOAD PUSH1 0xFF AND DUP1 PUSH3 0x4BC JUMPI POP PUSH1 0x1 PUSH1 0x1 PUSH1 0xA0 SHL SUB DUP3 AND PUSH1 0x0 SWAP1 DUP2 MSTORE PUSH1 0xB PUSH1 0x20 MSTORE PUSH1 0x40 SWAP1 KECCAK256 SLOAD PUSH1 0xFF AND JUMPDEST PUSH3 0x50A JUMPI PUSH1 0x40 MLOAD PUSH3 0x461BCD PUSH1 0xE5 SHL DUP2 MSTORE PUSH1 0x20 PUSH1 0x4 DUP3 ADD MSTORE PUSH1 0x1E PUSH1 0x24 DUP3 ADD MSTORE PUSH32 0x7472616E7366657273206C6F636B656420756E74696C206D61696E6E65740000 PUSH1 0x44 DUP3 ADD MSTORE PUSH1 0x64 ADD PUSH3 0xFC JUMP JUMPDEST POP POP POP JUMP JUMPDEST PUSH1 0x0 DUP3 DUP2 MSTORE PUSH1 0x9 PUSH1 0x20 SWAP1 DUP2 MSTORE PUSH1 0x40 DUP1 DUP4 KECCAK256 PUSH1 0x1 PUSH1 0x1 PUSH1 0xA0 SHL SUB DUP6 AND DUP5 MSTORE SWAP1 SWAP2 MSTORE SWAP1 KECCAK256 SLOAD PUSH1 0xFF AND JUMPDEST SWAP3 SWAP2 POP POP JUMP JUMPDEST PUSH1 0x1 PUSH1 0x1 PUSH1 0xA0 SHL SUB DUP4 AND PUSH3 0x560 JUMPI PUSH3 0x556 DUP3 PUSH3 0x58B JUMP JUMPDEST PUSH3 0x50A PUSH3 0x5C3 JUMP JUMPDEST PUSH1 0x1 PUSH1 0x1 PUSH1 0xA0 SHL SUB DUP3 AND PUSH3 0x57A JUMPI PUSH3 0x556 DUP4 PUSH3 0x58B JUMP JUMPDEST PUSH3 0x585 DUP4 PUSH3 0x58B JUMP JUMPDEST PUSH3 0x50A DUP3 JUMPDEST PUSH1 0x1 PUSH1 0x1 PUSH1 0xA0 SHL SUB DUP2 AND PUSH1 0x0 SWAP1 DUP2 MSTORE PUSH1 0x5 PUSH1 0x20 SWAP1 DUP2 MSTORE PUSH1 0x40 DUP1 DUP4 KECCAK256 SWAP2 DUP4 SWAP1 MSTORE SWAP1 SWAP2 KECCAK256 SLOAD PUSH3 0x5C0 SWAP2 SWAP1 PUSH3 0x5D5 JUMP JUMPDEST PUSH3 0x5D5 JUMP JUMPDEST POP JUMP JUMPDEST PUSH3 0x5D3 PUSH1 0x6 PUSH3 0x5BA PUSH1 0x2 SLOAD SWAP1 JUMP JUMPDEST JUMP JUMPDEST PUSH1 0x0 PUSH3 0x5E1 PUSH3 0x624 JUMP JUMPDEST SWAP1 POP DUP1 PUSH3 0x5EF DUP5 PUSH3 0x635 JUMP JUMPDEST LT ISZERO PUSH3 0x50A JUMPI DUP3 SLOAD PUSH1 0x1 DUP1 DUP3 ADD DUP6 SSTORE PUSH1 0x0 DUP6 DUP2 MSTORE PUSH1 0x20 DUP1 DUP3 KECCAK256 SWAP1 SWAP4 ADD SWAP4 SWAP1 SWAP4 SSTORE SWAP4 DUP5 ADD DUP1 SLOAD SWAP5 DUP6 ADD DUP2 SSTORE DUP3 MSTORE SWAP1 KECCAK256 SWAP1 SWAP2 ADD SSTORE JUMP JUMPDEST PUSH1 0x0 PUSH3 0x630 PUSH1 0x8 SLOAD SWAP1 JUMP JUMPDEST SWAP1 POP SWAP1 JUMP JUMPDEST DUP1 SLOAD PUSH1 0x0 SWAP1 DUP2 SUB PUSH3 0x649 JUMPI POP PUSH1 0x0 SWAP2 SWAP1 POP JUMP JUMPDEST DUP2 SLOAD DUP3 SWAP1 PUSH3 0x65B SWAP1 PUSH1 0x1 SWAP1 PUSH3 0x978 JUMP JUMPDEST DUP2 SLOAD DUP2 LT PUSH3 0x66E JUMPI PUSH3 0x66E PUSH3 0x98E JUMP JUMPDEST SWAP1 PUSH1 0x0 MSTORE PUSH1 0x20 PUSH1 0x0 KECCAK256 ADD SLOAD SWAP1 POP SWAP2 SWAP1 POP JUMP JUMPDEST PUSH1 0x0 PUSH1 0x20 DUP3 DUP5 SUB SLT ISZERO PUSH3 0x693 JUMPI PUSH1 0x0 DUP1 REVERT JUMPDEST DUP2 MLOAD PUSH1 0x1 PUSH1 0x1 PUSH1 0xA0 SHL SUB DUP2 AND DUP2 EQ PUSH3 0x6AB JUMPI PUSH1 0x0 DUP1 REVERT JUMPDEST SWAP4 SWAP3 POP POP POP JUMP JUMPDEST PUSH4 0x4E487B71 PUSH1 0xE0 SHL PUSH1 0x0 MSTORE PUSH1 0x41 PUSH1 0x4 MSTORE PUSH1 0x24 PUSH1 0x0 REVERT JUMPDEST PUSH1 0x1 DUP2 DUP2 SHR SWAP1 DUP3 AND DUP1 PUSH3 0x6DD JUMPI PUSH1 0x7F DUP3 AND SWAP2 POP JUMPDEST PUSH1 0x20 DUP3 LT DUP2 SUB PUSH3 0x6FE JUMPI PUSH4 0x4E487B71 PUSH1 0xE0 SHL PUSH1 0x0 MSTORE PUSH1 0x22 PUSH1 0x4 MSTORE PUSH1 0x24 PUSH1 0x0 REVERT JUMPDEST POP SWAP2 SWAP1 POP JUMP JUMPDEST PUSH1 0x1F DUP3 GT ISZERO PUSH3 0x50A JUMPI PUSH1 0x0 DUP2 PUSH1 0x0 MSTORE PUSH1 0x20 PUSH1 0x0 KECCAK256 PUSH1 0x1F DUP6 ADD PUSH1 0x5 SHR DUP2 ADD PUSH1 0x20 DUP7 LT ISZERO PUSH3 0x72F JUMPI POP DUP1 JUMPDEST PUSH1 0x1F DUP6 ADD PUSH1 0x5 SHR DUP3 ADD SWAP2 POP JUMPDEST DUP2 DUP2 LT ISZERO PUSH3 0x750 JUMPI DUP3 DUP2 SSTORE PUSH1 0x1 ADD PUSH3 0x73B JUMP JUMPDEST POP POP POP POP POP POP JUMP JUMPDEST DUP2 MLOAD PUSH1 0x1 PUSH1 0x1 PUSH1 0x40 SHL SUB DUP2 GT ISZERO PUSH3 0x774 JUMPI PUSH3 0x774 PUSH3 0x6B2 JUMP JUMPDEST PUSH3 0x78C DUP2 PUSH3 0x785 DUP5 SLOAD PUSH3 0x6C8 JUMP JUMPDEST DUP5 PUSH3 0x704 JUMP JUMPDEST PUSH1 0x20 DUP1 PUSH1 0x1F DUP4 GT PUSH1 0x1 DUP2 EQ PUSH3 0x7C4 JUMPI PUSH1 0x0 DUP5 ISZERO PUSH3 0x7AB JUMPI POP DUP6 DUP4 ADD MLOAD JUMPDEST PUSH1 0x0 NOT PUSH1 0x3 DUP7 SWAP1 SHL SHR NOT AND PUSH1 0x1 DUP6 SWAP1 SHL OR DUP6 SSTORE PUSH3 0x750 JUMP JUMPDEST PUSH1 0x0 DUP6 DUP2 MSTORE PUSH1 0x20 DUP2 KECCAK256 PUSH1 0x1F NOT DUP7 AND SWAP2 JUMPDEST DUP3 DUP2 LT ISZERO PUSH3 0x7F5 JUMPI DUP9 DUP7 ADD MLOAD DUP3 SSTORE SWAP5 DUP5 ADD SWAP5 PUSH1 0x1 SWAP1 SWAP2 ADD SWAP1 DUP5 ADD PUSH3 0x7D4 JUMP JUMPDEST POP DUP6 DUP3 LT ISZERO PUSH3 0x814 JUMPI DUP8 DUP6 ADD MLOAD PUSH1 0x0 NOT PUSH1 0x3 DUP9 SWAP1 SHL PUSH1 0xF8 AND SHR NOT AND DUP2 SSTORE JUMPDEST POP POP POP POP POP PUSH1 0x1 SWAP1 DUP2 SHL ADD SWAP1 SSTORE POP JUMP JUMPDEST PUSH4 0x4E487B71 PUSH1 0xE0 SHL PUSH1 0x0 MSTORE PUSH1 0x11 PUSH1 0x4 MSTORE PUSH1 0x24 PUSH1 0x0 REVERT JUMPDEST PUSH1 0x1 DUP2 DUP2 JUMPDEST DUP1 DUP6 GT ISZERO PUSH3 0x87B JUMPI DUP2 PUSH1 0x0 NOT DIV DUP3 GT ISZERO PUSH3 0x85F JUMPI PUSH3 0x85F PUSH3 0x824 JUMP JUMPDEST DUP1 DUP6 AND ISZERO PUSH3 0x86D JUMPI SWAP2 DUP2 MUL SWAP2 JUMPDEST SWAP4 DUP5 SHR SWAP4 SWAP1 DUP1 MUL SWAP1 PUSH3 0x83F JUMP JUMPDEST POP SWAP3 POP SWAP3 SWAP1 POP JUMP JUMPDEST PUSH1 0x0 DUP3 PUSH3 0x894 JUMPI POP PUSH1 0x1 PUSH3 0x536 JUMP JUMPDEST DUP2 PUSH3 0x8A3 JUMPI POP PUSH1 0x0 PUSH3 0x536 JUMP JUMPDEST DUP2 PUSH1 0x1 DUP2 EQ PUSH3 0x8BC JUMPI PUSH1 0x2 DUP2 EQ PUSH3 0x8C7 JUMPI PUSH3 0x8E7 JUMP JUMPDEST PUSH1 0x1 SWAP2 POP POP PUSH3 0x536 JUMP JUMPDEST PUSH1 0xFF DUP5 GT ISZERO PUSH3 0x8DB JUMPI PUSH3 0x8DB PUSH3 0x824 JUMP JUMPDEST POP POP PUSH1 0x1 DUP3 SHL PUSH3 0x536 JUMP JUMPDEST POP PUSH1 0x20 DUP4 LT PUSH2 0x133 DUP4 LT AND PUSH1 0x4E DUP5 LT PUSH1 0xB DUP5 LT AND OR ISZERO PUSH3 0x90C JUMPI POP DUP2 DUP2 EXP PUSH3 0x536 JUMP JUMPDEST PUSH3 0x918 DUP4 DUP4 PUSH3 0x83A JUMP JUMPDEST DUP1 PUSH1 0x0 NOT DIV DUP3 GT ISZERO PUSH3 0x92F JUMPI PUSH3 0x92F PUSH3 0x824 JUMP JUMPDEST MUL SWAP4 SWAP3 POP POP POP JUMP JUMPDEST PUSH1 0x0 PUSH3 0x6AB PUSH1 0xFF DUP5 AND DUP4 PUSH3 0x883 JUMP JUMPDEST DUP1 DUP3 MUL DUP2 ISZERO DUP3 DUP3 DIV DUP5 EQ OR PUSH3 0x536 JUMPI PUSH3 0x536 PUSH3 0x824 JUMP JUMPDEST DUP1 DUP3 ADD DUP1 DUP3 GT ISZERO PUSH3 0x536 JUMPI PUSH3 0x536 PUSH3 0x824 JUMP JUMPDEST DUP2 DUP2 SUB DUP2 DUP2 GT ISZERO PUSH3 0x536 JUMPI PUSH3 0x536 PUSH3 0x824 JUMP JUMPDEST PUSH4 0x4E487B71 PUSH1 0xE0 SHL PUSH1 0x0 MSTORE PUSH1 0x32 PUSH1 0x4 MSTORE PUSH1 0x24 PUSH1 0x0 REVERT JUMPDEST PUSH2 0x1F8D DUP1 PUSH3 0x9B4 PUSH1 0x0 CODECOPY PUSH1 0x0 RETURN INVALID PUSH1 0x80 PUSH1 0x40 MSTORE CALLVALUE DUP1 ISZERO PUSH2 0x10 JUMPI PUSH1 0x0 DUP1 REVERT JUMPDEST POP PUSH1 0x4 CALLDATASIZE LT PUSH2 0x248 JUMPI PUSH1 0x0 CALLDATALOAD PUSH1 0xE0 SHR DUP1 PUSH4 0x679A3A22 GT PUSH2 0x13B JUMPI DUP1 PUSH4 0xA457C2D7 GT PUSH2 0xB8 JUMPI DUP1 PUSH4 0xD547741F GT PUSH2 0x7C JUMPI DUP1 PUSH4 0xD547741F EQ PUSH2 0x535 JUMPI DUP1 PUSH4 0xDD62ED3E EQ PUSH2 0x548 JUMPI DUP1 PUSH4 0xE1830F7D EQ PUSH2 0x55B JUMPI DUP1 PUSH4 0xE63AB1E9 EQ PUSH2 0x56E JUMPI DUP1 PUSH4 0xE6A07CC1 EQ PUSH2 0x595 JUMPI PUSH1 0x0 DUP1 REVERT JUMPDEST DUP1 PUSH4 0xA457C2D7 EQ PUSH2 0x4B2 JUMPI DUP1 PUSH4 0xA9059CBB EQ PUSH2 0x4C5 JUMPI DUP1 PUSH4 0xAC869CD8 EQ PUSH2 0x4D8 JUMPI DUP1 PUSH4 0xD0516650 EQ PUSH2 0x4EB JUMPI DUP1 PUSH4 0xD5391393 EQ PUSH2 0x50E JUMPI PUSH1 0x0 DUP1 REVERT JUMPDEST DUP1 PUSH4 0x91D14854 GT PUSH2 0xFF JUMPI DUP1 PUSH4 0x91D14854 EQ PUSH2 0x474 JUMPI DUP1 PUSH4 0x95D89B41 EQ PUSH2 0x487 JUMPI DUP1 PUSH4 0x9711715A EQ PUSH2 0x48F JUMPI DUP1 PUSH4 0x981B24D0 EQ PUSH2 0x497 JUMPI DUP1 PUSH4 0xA217FDDF EQ PUSH2 0x4AA JUMPI PUSH1 0x0 DUP1 REVERT JUMPDEST DUP1 PUSH4 0x679A3A22 EQ PUSH2 0x3E6 JUMPI DUP1 PUSH4 0x7028E2CD EQ PUSH2 0x409 JUMPI DUP1 PUSH4 0x70A08231 EQ PUSH2 0x430 JUMPI DUP1 PUSH4 0x79CC6790 EQ PUSH2 0x459 JUMPI DUP1 PUSH4 0x8456CB59 EQ PUSH2 0x46C JUMPI PUSH1 0x0 DUP1 REVERT JUMPDEST DUP1 PUSH4 0x319A9395 GT PUSH2 0x1C9 JUMPI DUP1 PUSH4 0x40C10F19 GT PUSH2 0x18D JUMPI DUP1 PUSH4 0x40C10F19 EQ PUSH2 0x38F JUMPI DUP1 PUSH4 0x42966C68 EQ PUSH2 0x3A2 JUMPI DUP1 PUSH4 0x4EE2CD7E EQ PUSH2 0x3B5 JUMPI DUP1 PUSH4 0x5544E64F EQ PUSH2 0x3C8 JUMPI DUP1 PUSH4 0x5C975ABB EQ PUSH2 0x3DB JUMPI PUSH1 0x0 DUP1 REVERT JUMPDEST DUP1 PUSH4 0x319A9395 EQ PUSH2 0x346 JUMPI DUP1 PUSH4 0x32CB6B0C EQ PUSH2 0x359 JUMPI DUP1 PUSH4 0x36568ABE EQ PUSH2 0x361 JUMPI DUP1 PUSH4 0x39509351 EQ PUSH2 0x374 JUMPI DUP1 PUSH4 0x3F4BA83A EQ PUSH2 0x387 JUMPI PUSH1 0x0 DUP1 REVERT JUMPDEST DUP1 PUSH4 0x18160DDD GT PUSH2 0x210 JUMPI DUP1 PUSH4 0x18160DDD EQ PUSH2 0x2E4 JUMPI DUP1 PUSH4 0x23B872DD EQ PUSH2 0x2EC JUMPI DUP1 PUSH4 0x248A9CA3 EQ PUSH2 0x2FF JUMPI DUP1 PUSH4 0x2F2FF15D EQ PUSH2 0x322 JUMPI DUP1 PUSH4 0x313CE567 EQ PUSH2 0x337 JUMPI PUSH1 0x0 DUP1 REVERT JUMPDEST DUP1 PUSH4 0x1FFC9A7 EQ PUSH2 0x24D JUMPI DUP1 PUSH4 0x6A85F0F EQ PUSH2 0x275 JUMPI DUP1 PUSH4 0x6FDDE03 EQ PUSH2 0x2AA JUMPI DUP1 PUSH4 0x95EA7B3 EQ PUSH2 0x2BF JUMPI DUP1 PUSH4 0x9FA90B3 EQ PUSH2 0x2D2 JUMPI JUMPDEST PUSH1 0x0 DUP1 REVERT JUMPDEST PUSH2 0x260 PUSH2 0x25B CALLDATASIZE PUSH1 0x4 PUSH2 0x1B28 JUMP JUMPDEST PUSH2 0x5A8 JUMP JUMPDEST PUSH1 0x40 MLOAD SWAP1 ISZERO ISZERO DUP2 MSTORE PUSH1 0x20 ADD JUMPDEST PUSH1 0x40 MLOAD DUP1 SWAP2 SUB SWAP1 RETURN JUMPDEST PUSH2 0x29C PUSH32 0x92DE27771F92D6942691D73358B3A4673E4880DE8356F8F2CF452BE87E02D363 DUP2 JUMP JUMPDEST PUSH1 0x40 MLOAD SWAP1 DUP2 MSTORE PUSH1 0x20 ADD PUSH2 0x26C JUMP JUMPDEST PUSH2 0x2B2 PUSH2 0x5DF JUMP JUMPDEST PUSH1 0x40 MLOAD PUSH2 0x26C SWAP2 SWAP1 PUSH2 0x1B76 JUMP JUMPDEST PUSH2 0x260 PUSH2 0x2CD CALLDATASIZE PUSH1 0x4 PUSH2 0x1BC0 JUMP JUMPDEST PUSH2 0x671 JUMP JUMPDEST PUSH1 0xA SLOAD PUSH2 0x260 SWAP1 PUSH2 0x100 SWAP1 DIV PUSH1 0xFF AND DUP2 JUMP JUMPDEST PUSH1 0x2 SLOAD PUSH2 0x29C JUMP JUMPDEST PUSH2 0x260 PUSH2 0x2FA CALLDATASIZE PUSH1 0x4 PUSH2 0x1BEA JUMP JUMPDEST PUSH2 0x689 JUMP JUMPDEST PUSH2 0x29C PUSH2 0x30D CALLDATASIZE PUSH1 0x4 PUSH2 0x1C26 JUMP JUMPDEST PUSH1 0x0 SWAP1 DUP2 MSTORE PUSH1 0x9 PUSH1 0x20 MSTORE PUSH1 0x40 SWAP1 KECCAK256 PUSH1 0x1 ADD SLOAD SWAP1 JUMP JUMPDEST PUSH2 0x335 PUSH2 0x330 CALLDATASIZE PUSH1 0x4 PUSH2 0x1C3F JUMP JUMPDEST PUSH2 0x6AD JUMP JUMPDEST STOP JUMPDEST PUSH1 0x40 MLOAD PUSH1 0x9 DUP2 MSTORE PUSH1 0x20 ADD PUSH2 0x26C JUMP JUMPDEST PUSH2 0x335 PUSH2 0x354 CALLDATASIZE PUSH1 0x4 PUSH2 0x1C7B JUMP JUMPDEST PUSH2 0x6D7 JUMP JUMPDEST PUSH2 0x29C PUSH2 0x737 JUMP JUMPDEST PUSH2 0x335 PUSH2 0x36F CALLDATASIZE PUSH1 0x4 PUSH2 0x1C3F JUMP JUMPDEST PUSH2 0x755 JUMP JUMPDEST PUSH2 0x260 PUSH2 0x382 CALLDATASIZE PUSH1 0x4 PUSH2 0x1BC0 JUMP JUMPDEST PUSH2 0x7D8 JUMP JUMPDEST PUSH2 0x335 PUSH2 0x7FA JUMP JUMPDEST PUSH2 0x335 PUSH2 0x39D CALLDATASIZE PUSH1 0x4 PUSH2 0x1BC0 JUMP JUMPDEST PUSH2 0x82F JUMP JUMPDEST PUSH2 0x335 PUSH2 0x3B0 CALLDATASIZE PUSH1 0x4 PUSH2 0x1C26 JUMP JUMPDEST PUSH2 0x8CF JUMP JUMPDEST PUSH2 0x29C PUSH2 0x3C3 CALLDATASIZE PUSH1 0x4 PUSH2 0x1BC0 JUMP JUMPDEST PUSH2 0x8D9 JUMP JUMPDEST PUSH2 0x335 PUSH2 0x3D6 CALLDATASIZE PUSH1 0x4 PUSH2 0x1BC0 JUMP JUMPDEST PUSH2 0x932 JUMP JUMPDEST PUSH1 0xA SLOAD PUSH1 0xFF AND PUSH2 0x260 JUMP JUMPDEST PUSH2 0x260 PUSH2 0x3F4 CALLDATASIZE PUSH1 0x4 PUSH2 0x1C96 JUMP JUMPDEST PUSH1 0xB PUSH1 0x20 MSTORE PUSH1 0x0 SWAP1 DUP2 MSTORE PUSH1 0x40 SWAP1 KECCAK256 SLOAD PUSH1 0xFF AND DUP2 JUMP JUMPDEST PUSH2 0x29C PUSH32 0x5FDBD35E8DA83EE755D5E62A539E5ED7F47126ABEDE0B8B10F9EA43DC6EED07F DUP2 JUMP JUMPDEST PUSH2 0x29C PUSH2 0x43E CALLDATASIZE PUSH1 0x4 PUSH2 0x1C96 JUMP JUMPDEST PUSH1 0x1 PUSH1 0x1 PUSH1 0xA0 SHL SUB AND PUSH1 0x0 SWAP1 DUP2 MSTORE PUSH1 0x20 DUP2 SWAP1 MSTORE PUSH1 0x40 SWAP1 KECCAK256 SLOAD SWAP1 JUMP JUMPDEST PUSH2 0x335 PUSH2 0x467 CALLDATASIZE PUSH1 0x4 PUSH2 0x1BC0 JUMP JUMPDEST PUSH2 0x947 JUMP JUMPDEST PUSH2 0x335 PUSH2 0x95C JUMP JUMPDEST PUSH2 0x260 PUSH2 0x482 CALLDATASIZE PUSH1 0x4 PUSH2 0x1C3F JUMP JUMPDEST PUSH2 0x98E JUMP JUMPDEST PUSH2 0x2B2 PUSH2 0x9B9 JUMP JUMPDEST PUSH2 0x29C PUSH2 0x9C8 JUMP JUMPDEST PUSH2 0x29C PUSH2 0x4A5 CALLDATASIZE PUSH1 0x4 PUSH2 0x1C26 JUMP JUMPDEST PUSH2 0xA02 JUMP JUMPDEST PUSH2 0x29C PUSH1 0x0 DUP2 JUMP JUMPDEST PUSH2 0x260 PUSH2 0x4C0 CALLDATASIZE PUSH1 0x4 PUSH2 0x1BC0 JUMP JUMPDEST PUSH2 0xA2D JUMP JUMPDEST PUSH2 0x260 PUSH2 0x4D3 CALLDATASIZE PUSH1 0x4 PUSH2 0x1BC0 JUMP JUMPDEST PUSH2 0xAA8 JUMP JUMPDEST PUSH2 0x335 PUSH2 0x4E6 CALLDATASIZE PUSH1 0x4 PUSH2 0x1CB1 JUMP JUMPDEST PUSH2 0xAB6 JUMP JUMPDEST PUSH2 0x260 PUSH2 0x4F9 CALLDATASIZE PUSH1 0x4 PUSH2 0x1C96 JUMP JUMPDEST PUSH1 0xC PUSH1 0x20 MSTORE PUSH1 0x0 SWAP1 DUP2 MSTORE PUSH1 0x40 SWAP1 KECCAK256 SLOAD PUSH1 0xFF AND DUP2 JUMP JUMPDEST PUSH2 0x29C PUSH32 0x9F2DF0FED2C77648DE5860A4CC508CD0818C85B8B8A1AB4CEEEF8D981C8956A6 DUP2 JUMP JUMPDEST PUSH2 0x335 PUSH2 0x543 CALLDATASIZE PUSH1 0x4 PUSH2 0x1C3F JUMP JUMPDEST PUSH2 0xB41 JUMP JUMPDEST PUSH2 0x29C PUSH2 0x556 CALLDATASIZE PUSH1 0x4 PUSH2 0x1CDB JUMP JUMPDEST PUSH2 0xB66 JUMP JUMPDEST PUSH2 0x335 PUSH2 0x569 CALLDATASIZE PUSH1 0x4 PUSH2 0x1CB1 JUMP JUMPDEST PUSH2 0xB91 JUMP JUMPDEST PUSH2 0x29C PUSH32 0x65D7A28E3265B37A6474929F336521B332C1681B933F6CB9F3376673440D862A DUP2 JUMP JUMPDEST PUSH2 0x335 PUSH2 0x5A3 CALLDATASIZE PUSH1 0x4 PUSH2 0x1BEA JUMP JUMPDEST PUSH2 0xBF4 JUMP JUMPDEST PUSH1 0x0 PUSH1 0x1 PUSH1 0x1 PUSH1 0xE0 SHL SUB NOT DUP3 AND PUSH4 0x7965DB0B PUSH1 0xE0 SHL EQ DUP1 PUSH2 0x5D9 JUMPI POP PUSH4 0x1FFC9A7 PUSH1 0xE0 SHL PUSH1 0x1 PUSH1 0x1 PUSH1 0xE0 SHL SUB NOT DUP4 AND EQ JUMPDEST SWAP3 SWAP2 POP POP JUMP JUMPDEST PUSH1 0x60 PUSH1 0x3 DUP1 SLOAD PUSH2 0x5EE SWAP1 PUSH2 0x1D05 JUMP JUMPDEST DUP1 PUSH1 0x1F ADD PUSH1 0x20 DUP1 SWAP2 DIV MUL PUSH1 0x20 ADD PUSH1 0x40 MLOAD SWAP1 DUP2 ADD PUSH1 0x40 MSTORE DUP1 SWAP3 SWAP2 SWAP1 DUP2 DUP2 MSTORE PUSH1 0x20 ADD DUP3 DUP1 SLOAD PUSH2 0x61A SWAP1 PUSH2 0x1D05 JUMP JUMPDEST DUP1 ISZERO PUSH2 0x667 JUMPI DUP1 PUSH1 0x1F LT PUSH2 0x63C JUMPI PUSH2 0x100 DUP1 DUP4 SLOAD DIV MUL DUP4 MSTORE SWAP2 PUSH1 0x20 ADD SWAP2 PUSH2 0x667 JUMP JUMPDEST DUP3 ADD SWAP2 SWAP1 PUSH1 0x0 MSTORE PUSH1 0x20 PUSH1 0x0 KECCAK256 SWAP1 JUMPDEST DUP2 SLOAD DUP2 MSTORE SWAP1 PUSH1 0x1 ADD SWAP1 PUSH1 0x20 ADD DUP1 DUP4 GT PUSH2 0x64A JUMPI DUP3 SWAP1 SUB PUSH1 0x1F AND DUP3 ADD SWAP2 JUMPDEST POP POP POP POP POP SWAP1 POP SWAP1 JUMP JUMPDEST PUSH1 0x0 CALLER PUSH2 0x67F DUP2 DUP6 DUP6 PUSH2 0xCC5 JUMP JUMPDEST POP PUSH1 0x1 SWAP4 SWAP3 POP POP POP JUMP JUMPDEST PUSH1 0x0 CALLER PUSH2 0x697 DUP6 DUP3 DUP6 PUSH2 0xDE9 JUMP JUMPDEST PUSH2 0x6A2 DUP6 DUP6 DUP6 PUSH2 0xE63 JUMP JUMPDEST POP PUSH1 0x1 SWAP5 SWAP4 POP POP POP POP JUMP JUMPDEST PUSH1 0x0 DUP3 DUP2 MSTORE PUSH1 0x9 PUSH1 0x20 MSTORE PUSH1 0x40 SWAP1 KECCAK256 PUSH1 0x1 ADD SLOAD PUSH2 0x6C8 DUP2 PUSH2 0x1012 JUMP JUMPDEST PUSH2 0x6D2 DUP4 DUP4 PUSH2 0x101C JUMP JUMPDEST POP POP POP JUMP JUMPDEST PUSH1 0x0 PUSH2 0x6E2 DUP2 PUSH2 0x1012 JUMP JUMPDEST PUSH1 0xA DUP1 SLOAD DUP4 ISZERO ISZERO PUSH2 0x100 MUL PUSH2 0xFF00 NOT SWAP1 SWAP2 AND OR SWAP1 SSTORE PUSH1 0x40 MLOAD PUSH32 0x68B6038D5F513A917B7F22CB9F233A3B7519992D4D9BEA2C1A812A7F9D4D78B9 SWAP1 PUSH2 0x72B SWAP1 DUP5 ISZERO ISZERO DUP2 MSTORE PUSH1 0x20 ADD SWAP1 JUMP JUMPDEST PUSH1 0x40 MLOAD DUP1 SWAP2 SUB SWAP1 LOG1 POP POP JUMP JUMPDEST PUSH2 0x743 PUSH1 0x9 PUSH1 0xA PUSH2 0x1E31 JUMP JUMPDEST PUSH2 0x752 SWAP1 PUSH5 0x165A0BC00 PUSH2 0x1E40 JUMP JUMPDEST DUP2 JUMP JUMPDEST PUSH1 0x1 PUSH1 0x1 PUSH1 0xA0 SHL SUB DUP2 AND CALLER EQ PUSH2 0x7CA JUMPI PUSH1 0x40 MLOAD PUSH3 0x461BCD PUSH1 0xE5 SHL DUP2 MSTORE PUSH1 0x20 PUSH1 0x4 DUP3 ADD MSTORE PUSH1 0x2F PUSH1 0x24 DUP3 ADD MSTORE PUSH32 0x416363657373436F6E74726F6C3A2063616E206F6E6C792072656E6F756E6365 PUSH1 0x44 DUP3 ADD MSTORE PUSH15 0x103937B632B9903337B91039B2B633 PUSH1 0x89 SHL PUSH1 0x64 DUP3 ADD MSTORE PUSH1 0x84 ADD JUMPDEST PUSH1 0x40 MLOAD DUP1 SWAP2 SUB SWAP1 REVERT JUMPDEST PUSH2 0x7D4 DUP3 DUP3 PUSH2 0x10A2 JUMP JUMPDEST POP POP JUMP JUMPDEST PUSH1 0x0 CALLER PUSH2 0x67F DUP2 DUP6 DUP6 PUSH2 0x7EB DUP4 DUP4 PUSH2 0xB66 JUMP JUMPDEST PUSH2 0x7F5 SWAP2 SWAP1 PUSH2 0x1E57 JUMP JUMPDEST PUSH2 0xCC5 JUMP JUMPDEST PUSH32 0x65D7A28E3265B37A6474929F336521B332C1681B933F6CB9F3376673440D862A PUSH2 0x824 DUP2 PUSH2 0x1012 JUMP JUMPDEST PUSH2 0x82C PUSH2 0x1109 JUMP JUMPDEST POP JUMP JUMPDEST PUSH32 0x9F2DF0FED2C77648DE5860A4CC508CD0818C85B8B8A1AB4CEEEF8D981C8956A6 PUSH2 0x859 DUP2 PUSH2 0x1012 JUMP JUMPDEST PUSH2 0x865 PUSH1 0x9 PUSH1 0xA PUSH2 0x1E31 JUMP JUMPDEST PUSH2 0x874 SWAP1 PUSH5 0x165A0BC00 PUSH2 0x1E40 JUMP JUMPDEST DUP3 PUSH2 0x87E PUSH1 0x2 SLOAD SWAP1 JUMP JUMPDEST PUSH2 0x888 SWAP2 SWAP1 PUSH2 0x1E57 JUMP JUMPDEST GT ISZERO PUSH2 0x8C5 JUMPI PUSH1 0x40 MLOAD PUSH3 0x461BCD PUSH1 0xE5 SHL DUP2 MSTORE PUSH1 0x20 PUSH1 0x4 DUP3 ADD MSTORE PUSH1 0xC PUSH1 0x24 DUP3 ADD MSTORE PUSH12 0x18D85C08195E18D959591959 PUSH1 0xA2 SHL PUSH1 0x44 DUP3 ADD MSTORE PUSH1 0x64 ADD PUSH2 0x7C1 JUMP JUMPDEST PUSH2 0x6D2 DUP4 DUP4 PUSH2 0x115B JUMP JUMPDEST PUSH2 0x82C CALLER DUP3 PUSH2 0x1226 JUMP JUMPDEST PUSH1 0x1 PUSH1 0x1 PUSH1 0xA0 SHL SUB DUP3 AND PUSH1 0x0 SWAP1 DUP2 MSTORE PUSH1 0x5 PUSH1 0x20 MSTORE PUSH1 0x40 DUP2 KECCAK256 DUP2 SWAP1 DUP2 SWAP1 PUSH2 0x900 SWAP1 DUP6 SWAP1 PUSH2 0x1364 JUMP JUMPDEST SWAP2 POP SWAP2 POP DUP2 PUSH2 0x927 JUMPI PUSH1 0x1 PUSH1 0x1 PUSH1 0xA0 SHL SUB DUP6 AND PUSH1 0x0 SWAP1 DUP2 MSTORE PUSH1 0x20 DUP2 SWAP1 MSTORE PUSH1 0x40 SWAP1 KECCAK256 SLOAD PUSH2 0x929 JUMP JUMPDEST DUP1 JUMPDEST SWAP6 SWAP5 POP POP POP POP POP JUMP JUMPDEST PUSH1 0x0 PUSH2 0x93D DUP2 PUSH2 0x1012 JUMP JUMPDEST PUSH2 0x6D2 DUP4 DUP4 PUSH2 0x1226 JUMP JUMPDEST PUSH2 0x952 DUP3 CALLER DUP4 PUSH2 0xDE9 JUMP JUMPDEST PUSH2 0x7D4 DUP3 DUP3 PUSH2 0x1226 JUMP JUMPDEST PUSH32 0x65D7A28E3265B37A6474929F336521B332C1681B933F6CB9F3376673440D862A PUSH2 0x986 DUP2 PUSH2 0x1012 JUMP JUMPDEST PUSH2 0x82C PUSH2 0x1460 JUMP JUMPDEST PUSH1 0x0 SWAP2 DUP3 MSTORE PUSH1 0x9 PUSH1 0x20 SWAP1 DUP2 MSTORE PUSH1 0x40 DUP1 DUP5 KECCAK256 PUSH1 0x1 PUSH1 0x1 PUSH1 0xA0 SHL SUB SWAP4 SWAP1 SWAP4 AND DUP5 MSTORE SWAP2 SWAP1 MSTORE SWAP1 KECCAK256 SLOAD PUSH1 0xFF AND SWAP1 JUMP JUMPDEST PUSH1 0x60 PUSH1 0x4 DUP1 SLOAD PUSH2 0x5EE SWAP1 PUSH2 0x1D05 JUMP JUMPDEST PUSH1 0x0 PUSH32 0x5FDBD35E8DA83EE755D5E62A539E5ED7F47126ABEDE0B8B10F9EA43DC6EED07F PUSH2 0x9F4 DUP2 PUSH2 0x1012 JUMP JUMPDEST PUSH2 0x9FC PUSH2 0x149D JUMP JUMPDEST SWAP2 POP POP SWAP1 JUMP JUMPDEST PUSH1 0x0 DUP1 PUSH1 0x0 PUSH2 0xA12 DUP5 PUSH1 0x6 PUSH2 0x1364 JUMP JUMPDEST SWAP2 POP SWAP2 POP DUP2 PUSH2 0xA23 JUMPI PUSH1 0x2 SLOAD PUSH2 0xA25 JUMP JUMPDEST DUP1 JUMPDEST SWAP5 SWAP4 POP POP POP POP JUMP JUMPDEST PUSH1 0x0 CALLER DUP2 PUSH2 0xA3B DUP3 DUP7 PUSH2 0xB66 JUMP JUMPDEST SWAP1 POP DUP4 DUP2 LT ISZERO PUSH2 0xA9B JUMPI PUSH1 0x40 MLOAD PUSH3 0x461BCD PUSH1 0xE5 SHL DUP2 MSTORE PUSH1 0x20 PUSH1 0x4 DUP3 ADD MSTORE PUSH1 0x25 PUSH1 0x24 DUP3 ADD MSTORE PUSH32 0x45524332303A2064656372656173656420616C6C6F77616E63652062656C6F77 PUSH1 0x44 DUP3 ADD MSTORE PUSH5 0x207A65726F PUSH1 0xD8 SHL PUSH1 0x64 DUP3 ADD MSTORE PUSH1 0x84 ADD PUSH2 0x7C1 JUMP JUMPDEST PUSH2 0x6A2 DUP3 DUP7 DUP7 DUP5 SUB PUSH2 0xCC5 JUMP JUMPDEST PUSH1 0x0 CALLER PUSH2 0x67F DUP2 DUP6 DUP6 PUSH2 0xE63 JUMP JUMPDEST PUSH32 0x92DE27771F92D6942691D73358B3A4673E4880DE8356F8F2CF452BE87E02D363 PUSH2 0xAE0 DUP2 PUSH2 0x1012 JUMP JUMPDEST PUSH1 0x1 PUSH1 0x1 PUSH1 0xA0 SHL SUB DUP4 AND PUSH1 0x0 DUP2 DUP2 MSTORE PUSH1 0xC PUSH1 0x20 SWAP1 DUP2 MSTORE PUSH1 0x40 SWAP2 DUP3 SWAP1 KECCAK256 DUP1 SLOAD PUSH1 0xFF NOT AND DUP7 ISZERO ISZERO SWAP1 DUP2 OR SWAP1 SWAP2 SSTORE SWAP2 MLOAD SWAP2 DUP3 MSTORE PUSH32 0xD17E29B9185A00800171E680C627983F284CDF937B14EA98EF64D9B44A72F2FC SWAP2 ADD JUMPDEST PUSH1 0x40 MLOAD DUP1 SWAP2 SUB SWAP1 LOG2 POP POP POP JUMP JUMPDEST PUSH1 0x0 DUP3 DUP2 MSTORE PUSH1 0x9 PUSH1 0x20 MSTORE PUSH1 0x40 SWAP1 KECCAK256 PUSH1 0x1 ADD SLOAD PUSH2 0xB5C DUP2 PUSH2 0x1012 JUMP JUMPDEST PUSH2 0x6D2 DUP4 DUP4 PUSH2 0x10A2 JUMP JUMPDEST PUSH1 0x1 PUSH1 0x1 PUSH1 0xA0 SHL SUB SWAP2 DUP3 AND PUSH1 0x0 SWAP1 DUP2 MSTORE PUSH1 0x1 PUSH1 0x20 SWAP1 DUP2 MSTORE PUSH1 0x40 DUP1 DUP4 KECCAK256 SWAP4 SWAP1 SWAP5 AND DUP3 MSTORE SWAP2 SWAP1 SWAP2 MSTORE KECCAK256 SLOAD SWAP1 JUMP JUMPDEST PUSH1 0x0 PUSH2 0xB9C DUP2 PUSH2 0x1012 JUMP JUMPDEST PUSH1 0x1 PUSH1 0x1 PUSH1 0xA0 SHL SUB DUP4 AND PUSH1 0x0 DUP2 DUP2 MSTORE PUSH1 0xB PUSH1 0x20 SWAP1 DUP2 MSTORE PUSH1 0x40 SWAP2 DUP3 SWAP1 KECCAK256 DUP1 SLOAD PUSH1 0xFF NOT AND DUP7 ISZERO ISZERO SWAP1 DUP2 OR SWAP1 SWAP2 SSTORE SWAP2 MLOAD SWAP2 DUP3 MSTORE PUSH32 0x7A23B8AC29D2B86D4B816D80622C0C7F977E4AEEB595803953282CBCC92A1DED SWAP2 ADD PUSH2 0xB34 JUMP JUMPDEST PUSH1 0x0 PUSH2 0xBFF DUP2 PUSH2 0x1012 JUMP JUMPDEST PUSH1 0x1 PUSH1 0x1 PUSH1 0xA0 SHL SUB DUP5 AND ISZERO DUP1 ISZERO SWAP1 PUSH2 0xC1F JUMPI POP PUSH1 0x1 PUSH1 0x1 PUSH1 0xA0 SHL SUB DUP4 AND ISZERO ISZERO JUMPDEST PUSH2 0xC5A JUMPI PUSH1 0x40 MLOAD PUSH3 0x461BCD PUSH1 0xE5 SHL DUP2 MSTORE PUSH1 0x20 PUSH1 0x4 DUP3 ADD MSTORE PUSH1 0xC PUSH1 0x24 DUP3 ADD MSTORE PUSH12 0x7A65726F2061646472657373 PUSH1 0xA0 SHL PUSH1 0x44 DUP3 ADD MSTORE PUSH1 0x64 ADD PUSH2 0x7C1 JUMP JUMPDEST PUSH1 0xD DUP1 SLOAD PUSH1 0xFF NOT AND PUSH1 0x1 OR SWAP1 SSTORE PUSH2 0xC72 DUP5 DUP5 DUP5 PUSH2 0xE63 JUMP JUMPDEST PUSH1 0xD DUP1 SLOAD PUSH1 0xFF NOT AND SWAP1 SSTORE PUSH1 0x40 MLOAD DUP3 DUP2 MSTORE PUSH1 0x1 PUSH1 0x1 PUSH1 0xA0 SHL SUB DUP5 DUP2 AND SWAP2 SWAP1 DUP7 AND SWAP1 PUSH32 0x4C4FE4B520B7719D15DF70AF4FA62D1140E057C134CF7BFB52B72063DA0B6A3D SWAP1 PUSH1 0x20 ADD PUSH1 0x40 MLOAD DUP1 SWAP2 SUB SWAP1 LOG3 POP POP POP POP JUMP JUMPDEST PUSH1 0x1 PUSH1 0x1 PUSH1 0xA0 SHL SUB DUP4 AND PUSH2 0xD27 JUMPI PUSH1 0x40 MLOAD PUSH3 0x461BCD PUSH1 0xE5 SHL DUP2 MSTORE PUSH1 0x20 PUSH1 0x4 DUP3 ADD MSTORE PUSH1 0x24 DUP1 DUP3 ADD MSTORE PUSH32 0x45524332303A20617070726F76652066726F6D20746865207A65726F20616464 PUSH1 0x44 DUP3 ADD MSTORE PUSH4 0x72657373 PUSH1 0xE0 SHL PUSH1 0x64 DUP3 ADD MSTORE PUSH1 0x84 ADD PUSH2 0x7C1 JUMP JUMPDEST PUSH1 0x1 PUSH1 0x1 PUSH1 0xA0 SHL SUB DUP3 AND PUSH2 0xD88 JUMPI PUSH1 0x40 MLOAD PUSH3 0x461BCD PUSH1 0xE5 SHL DUP2 MSTORE PUSH1 0x20 PUSH1 0x4 DUP3 ADD MSTORE PUSH1 0x22 PUSH1 0x24 DUP3 ADD MSTORE PUSH32 0x45524332303A20617070726F766520746F20746865207A65726F206164647265 PUSH1 0x44 DUP3 ADD MSTORE PUSH2 0x7373 PUSH1 0xF0 SHL PUSH1 0x64 DUP3 ADD MSTORE PUSH1 0x84 ADD PUSH2 0x7C1 JUMP JUMPDEST PUSH1 0x1 PUSH1 0x1 PUSH1 0xA0 SHL SUB DUP4 DUP2 AND PUSH1 0x0 DUP2 DUP2 MSTORE PUSH1 0x1 PUSH1 0x20 SWAP1 DUP2 MSTORE PUSH1 0x40 DUP1 DUP4 KECCAK256 SWAP5 DUP8 AND DUP1 DUP5 MSTORE SWAP5 DUP3 MSTORE SWAP2 DUP3 SWAP1 KECCAK256 DUP6 SWAP1 SSTORE SWAP1 MLOAD DUP5 DUP2 MSTORE PUSH32 0x8C5BE1E5EBEC7D5BD14F71427D1E84F3DD0314C0F7B2291E5B200AC8C7C3B925 SWAP2 ADD PUSH1 0x40 MLOAD DUP1 SWAP2 SUB SWAP1 LOG3 POP POP POP JUMP JUMPDEST PUSH1 0x0 PUSH2 0xDF5 DUP5 DUP5 PUSH2 0xB66 JUMP JUMPDEST SWAP1 POP PUSH1 0x0 NOT DUP2 EQ PUSH2 0xE5D JUMPI DUP2 DUP2 LT ISZERO PUSH2 0xE50 JUMPI PUSH1 0x40 MLOAD PUSH3 0x461BCD PUSH1 0xE5 SHL DUP2 MSTORE PUSH1 0x20 PUSH1 0x4 DUP3 ADD MSTORE PUSH1 0x1D PUSH1 0x24 DUP3 ADD MSTORE PUSH32 0x45524332303A20696E73756666696369656E7420616C6C6F77616E6365000000 PUSH1 0x44 DUP3 ADD MSTORE PUSH1 0x64 ADD PUSH2 0x7C1 JUMP JUMPDEST PUSH2 0xE5D DUP5 DUP5 DUP5 DUP5 SUB PUSH2 0xCC5 JUMP JUMPDEST POP POP POP POP JUMP JUMPDEST PUSH1 0x1 PUSH1 0x1 PUSH1 0xA0 SHL SUB DUP4 AND PUSH2 0xEC7 JUMPI PUSH1 0x40 MLOAD PUSH3 0x461BCD PUSH1 0xE5 SHL DUP2 MSTORE PUSH1 0x20 PUSH1 0x4 DUP3 ADD MSTORE PUSH1 0x25 PUSH1 0x24 DUP3 ADD MSTORE PUSH32 0x45524332303A207472616E736665722066726F6D20746865207A65726F206164 PUSH1 0x44 DUP3 ADD MSTORE PUSH5 0x6472657373 PUSH1 0xD8 SHL PUSH1 0x64 DUP3 ADD MSTORE PUSH1 0x84 ADD PUSH2 0x7C1 JUMP JUMPDEST PUSH1 0x1 PUSH1 0x1 PUSH1 0xA0 SHL SUB DUP3 AND PUSH2 0xF29 JUMPI PUSH1 0x40 MLOAD PUSH3 0x461BCD PUSH1 0xE5 SHL DUP2 MSTORE PUSH1 0x20 PUSH1 0x4 DUP3 ADD MSTORE PUSH1 0x23 PUSH1 0x24 DUP3 ADD MSTORE PUSH32 0x45524332303A207472616E7366657220746F20746865207A65726F2061646472 PUSH1 0x44 DUP3 ADD MSTORE PUSH3 0x657373 PUSH1 0xE8 SHL PUSH1 0x64 DUP3 ADD MSTORE PUSH1 0x84 ADD PUSH2 0x7C1 JUMP JUMPDEST PUSH2 0xF34 DUP4 DUP4 DUP4 PUSH2 0x14F7 JUMP JUMPDEST PUSH1 0x1 PUSH1 0x1 PUSH1 0xA0 SHL SUB DUP4 AND PUSH1 0x0 SWAP1 DUP2 MSTORE PUSH1 0x20 DUP2 SWAP1 MSTORE PUSH1 0x40 SWAP1 KECCAK256 SLOAD DUP2 DUP2 LT ISZERO PUSH2 0xFAC JUMPI PUSH1 0x40 MLOAD PUSH3 0x461BCD PUSH1 0xE5 SHL DUP2 MSTORE PUSH1 0x20 PUSH1 0x4 DUP3 ADD MSTORE PUSH1 0x26 PUSH1 0x24 DUP3 ADD MSTORE PUSH32 0x45524332303A207472616E7366657220616D6F756E7420657863656564732062 PUSH1 0x44 DUP3 ADD MSTORE PUSH6 0x616C616E6365 PUSH1 0xD0 SHL PUSH1 0x64 DUP3 ADD MSTORE PUSH1 0x84 ADD PUSH2 0x7C1 JUMP JUMPDEST PUSH1 0x1 PUSH1 0x1 PUSH1 0xA0 SHL SUB DUP5 DUP2 AND PUSH1 0x0 DUP2 DUP2 MSTORE PUSH1 0x20 DUP2 DUP2 MSTORE PUSH1 0x40 DUP1 DUP4 KECCAK256 DUP8 DUP8 SUB SWAP1 SSTORE SWAP4 DUP8 AND DUP1 DUP4 MSTORE SWAP2 DUP5 SWAP1 KECCAK256 DUP1 SLOAD DUP8 ADD SWAP1 SSTORE SWAP3 MLOAD DUP6 DUP2 MSTORE SWAP1 SWAP3 PUSH32 0xDDF252AD1BE2C89B69C2B068FC378DAA952BA7F163C4A11628F55A4DF523B3EF SWAP2 ADD PUSH1 0x40 MLOAD DUP1 SWAP2 SUB SWAP1 LOG3 PUSH2 0xE5D JUMP JUMPDEST PUSH2 0x82C DUP2 CALLER PUSH2 0x1695 JUMP JUMPDEST PUSH2 0x1026 DUP3 DUP3 PUSH2 0x98E JUMP JUMPDEST PUSH2 0x7D4 JUMPI PUSH1 0x0 DUP3 DUP2 MSTORE PUSH1 0x9 PUSH1 0x20 SWAP1 DUP2 MSTORE PUSH1 0x40 DUP1 DUP4 KECCAK256 PUSH1 0x1 PUSH1 0x1 PUSH1 0xA0 SHL SUB DUP6 AND DUP5 MSTORE SWAP1 SWAP2 MSTORE SWAP1 KECCAK256 DUP1 SLOAD PUSH1 0xFF NOT AND PUSH1 0x1 OR SWAP1 SSTORE PUSH2 0x105E CALLER SWAP1 JUMP JUMPDEST PUSH1 0x1 PUSH1 0x1 PUSH1 0xA0 SHL SUB AND DUP2 PUSH1 0x1 PUSH1 0x1 PUSH1 0xA0 SHL SUB AND DUP4 PUSH32 0x2F8788117E7EFF1D82E926EC794901D17C78024A50270940304540A733656F0D PUSH1 0x40 MLOAD PUSH1 0x40 MLOAD DUP1 SWAP2 SUB SWAP1 LOG4 POP POP JUMP JUMPDEST PUSH2 0x10AC DUP3 DUP3 PUSH2 0x98E JUMP JUMPDEST ISZERO PUSH2 0x7D4 JUMPI PUSH1 0x0 DUP3 DUP2 MSTORE PUSH1 0x9 PUSH1 0x20 SWAP1 DUP2 MSTORE PUSH1 0x40 DUP1 DUP4 KECCAK256 PUSH1 0x1 PUSH1 0x1 PUSH1 0xA0 SHL SUB DUP6 AND DUP1 DUP6 MSTORE SWAP3 MSTORE DUP1 DUP4 KECCAK256 DUP1 SLOAD PUSH1 0xFF NOT AND SWAP1 SSTORE MLOAD CALLER SWAP3 DUP6 SWAP2 PUSH32 0xF6391F5C32D9C69D2A47EA670B442974B53935D1EDC7FD64EB21E047A839171B SWAP2 SWAP1 LOG4 POP POP JUMP JUMPDEST PUSH2 0x1111 PUSH2 0x16EE JUMP JUMPDEST PUSH1 0xA DUP1 SLOAD PUSH1 0xFF NOT AND SWAP1 SSTORE PUSH32 0x5DB9EE0A495BF2E6FF9C91A7834C1BA4FDD244A5E8AA4E537BD38AEAE4B073AA CALLER JUMPDEST PUSH1 0x40 MLOAD PUSH1 0x1 PUSH1 0x1 PUSH1 0xA0 SHL SUB SWAP1 SWAP2 AND DUP2 MSTORE PUSH1 0x20 ADD PUSH1 0x40 MLOAD DUP1 SWAP2 SUB SWAP1 LOG1 JUMP JUMPDEST PUSH1 0x1 PUSH1 0x1 PUSH1 0xA0 SHL SUB DUP3 AND PUSH2 0x11B1 JUMPI PUSH1 0x40 MLOAD PUSH3 0x461BCD PUSH1 0xE5 SHL DUP2 MSTORE PUSH1 0x20 PUSH1 0x4 DUP3 ADD MSTORE PUSH1 0x1F PUSH1 0x24 DUP3 ADD MSTORE PUSH32 0x45524332303A206D696E7420746F20746865207A65726F206164647265737300 PUSH1 0x44 DUP3 ADD MSTORE PUSH1 0x64 ADD PUSH2 0x7C1 JUMP JUMPDEST PUSH2 0x11BD PUSH1 0x0 DUP4 DUP4 PUSH2 0x14F7 JUMP JUMPDEST DUP1 PUSH1 0x2 PUSH1 0x0 DUP3 DUP3 SLOAD PUSH2 0x11CF SWAP2 SWAP1 PUSH2 0x1E57 JUMP JUMPDEST SWAP1 SWAP2 SSTORE POP POP PUSH1 0x1 PUSH1 0x1 PUSH1 0xA0 SHL SUB DUP3 AND PUSH1 0x0 DUP2 DUP2 MSTORE PUSH1 0x20 DUP2 DUP2 MSTORE PUSH1 0x40 DUP1 DUP4 KECCAK256 DUP1 SLOAD DUP7 ADD SWAP1 SSTORE MLOAD DUP5 DUP2 MSTORE PUSH32 0xDDF252AD1BE2C89B69C2B068FC378DAA952BA7F163C4A11628F55A4DF523B3EF SWAP2 ADD PUSH1 0x40 MLOAD DUP1 SWAP2 SUB SWAP1 LOG3 POP POP JUMP JUMPDEST PUSH1 0x1 PUSH1 0x1 PUSH1 0xA0 SHL SUB DUP3 AND PUSH2 0x1286 JUMPI PUSH1 0x40 MLOAD PUSH3 0x461BCD PUSH1 0xE5 SHL DUP2 MSTORE PUSH1 0x20 PUSH1 0x4 DUP3 ADD MSTORE PUSH1 0x21 PUSH1 0x24 DUP3 ADD MSTORE PUSH32 0x45524332303A206275726E2066726F6D20746865207A65726F20616464726573 PUSH1 0x44 DUP3 ADD MSTORE PUSH1 0x73 PUSH1 0xF8 SHL PUSH1 0x64 DUP3 ADD MSTORE PUSH1 0x84 ADD PUSH2 0x7C1 JUMP JUMPDEST PUSH2 0x1292 DUP3 PUSH1 0x0 DUP4 PUSH2 0x14F7 JUMP JUMPDEST PUSH1 0x1 PUSH1 0x1 PUSH1 0xA0 SHL SUB DUP3 AND PUSH1 0x0 SWAP1 DUP2 MSTORE PUSH1 0x20 DUP2 SWAP1 MSTORE PUSH1 0x40 SWAP1 KECCAK256 SLOAD DUP2 DUP2 LT ISZERO PUSH2 0x1306 JUMPI PUSH1 0x40 MLOAD PUSH3 0x461BCD PUSH1 0xE5 SHL DUP2 MSTORE PUSH1 0x20 PUSH1 0x4 DUP3 ADD MSTORE PUSH1 0x22 PUSH1 0x24 DUP3 ADD MSTORE PUSH32 0x45524332303A206275726E20616D6F756E7420657863656564732062616C616E PUSH1 0x44 DUP3 ADD MSTORE PUSH2 0x6365 PUSH1 0xF0 SHL PUSH1 0x64 DUP3 ADD MSTORE PUSH1 0x84 ADD PUSH2 0x7C1 JUMP JUMPDEST PUSH1 0x1 PUSH1 0x1 PUSH1 0xA0 SHL SUB DUP4 AND PUSH1 0x0 DUP2 DUP2 MSTORE PUSH1 0x20 DUP2 DUP2 MSTORE PUSH1 0x40 DUP1 DUP4 KECCAK256 DUP7 DUP7 SUB SWAP1 SSTORE PUSH1 0x2 DUP1 SLOAD DUP8 SWAP1 SUB SWAP1 SSTORE MLOAD DUP6 DUP2 MSTORE SWAP2 SWAP3 SWAP2 PUSH32 0xDDF252AD1BE2C89B69C2B068FC378DAA952BA7F163C4A11628F55A4DF523B3EF SWAP2 ADD PUSH1 0x40 MLOAD DUP1 SWAP2 SUB SWAP1 LOG3 POP POP POP JUMP JUMPDEST PUSH1 0x0 DUP1 PUSH1 0x0 DUP5 GT PUSH2 0x13B0 JUMPI PUSH1 0x40 MLOAD PUSH3 0x461BCD PUSH1 0xE5 SHL DUP2 MSTORE PUSH1 0x20 PUSH1 0x4 DUP3 ADD MSTORE PUSH1 0x16 PUSH1 0x24 DUP3 ADD MSTORE PUSH22 0x4552433230536E617073686F743A206964206973203 PUSH1 0x54 SHL PUSH1 0x44 DUP3 ADD MSTORE PUSH1 0x64 ADD PUSH2 0x7C1 JUMP JUMPDEST PUSH2 0x13B8 PUSH2 0x1739 JUMP JUMPDEST DUP5 GT ISZERO PUSH2 0x1407 JUMPI PUSH1 0x40 MLOAD PUSH3 0x461BCD PUSH1 0xE5 SHL DUP2 MSTORE PUSH1 0x20 PUSH1 0x4 DUP3 ADD MSTORE PUSH1 0x1D PUSH1 0x24 DUP3 ADD MSTORE PUSH32 0x4552433230536E617073686F743A206E6F6E6578697374656E74206964000000 PUSH1 0x44 DUP3 ADD MSTORE PUSH1 0x64 ADD PUSH2 0x7C1 JUMP JUMPDEST PUSH1 0x0 PUSH2 0x1413 DUP5 DUP7 PUSH2 0x1749 JUMP JUMPDEST DUP5 SLOAD SWAP1 SWAP2 POP DUP2 SUB PUSH2 0x142B JUMPI PUSH1 0x0 DUP1 SWAP3 POP SWAP3 POP POP PUSH2 0x1459 JUMP JUMPDEST PUSH1 0x1 DUP5 PUSH1 0x1 ADD DUP3 DUP2 SLOAD DUP2 LT PUSH2 0x1442 JUMPI PUSH2 0x1442 PUSH2 0x1E6A JUMP JUMPDEST SWAP1 PUSH1 0x0 MSTORE PUSH1 0x20 PUSH1 0x0 KECCAK256 ADD SLOAD SWAP3 POP SWAP3 POP POP PUSH2 0x1459 JUMP JUMPDEST POP JUMPDEST SWAP3 POP SWAP3 SWAP1 POP JUMP JUMPDEST PUSH2 0x1468 PUSH2 0x17F6 JUMP JUMPDEST PUSH1 0xA DUP1 SLOAD PUSH1 0xFF NOT AND PUSH1 0x1 OR SWAP1 SSTORE PUSH32 0x62E78CEA01BEE320CD4E420270B5EA74000D11B0C9F74754EBDBFC544B05A258 PUSH2 0x113E CALLER SWAP1 JUMP JUMPDEST PUSH1 0x0 PUSH2 0x14AD PUSH1 0x8 DUP1 SLOAD PUSH1 0x1 ADD SWAP1 SSTORE JUMP JUMPDEST PUSH1 0x0 PUSH2 0x14B7 PUSH2 0x1739 JUMP JUMPDEST SWAP1 POP PUSH32 0x8030E83B04D87BEF53480E26263266D6CA66863AA8506ACA6F2559D18AA1CB67 DUP2 PUSH1 0x40 MLOAD PUSH2 0x14EA SWAP2 DUP2 MSTORE PUSH1 0x20 ADD SWAP1 JUMP JUMPDEST PUSH1 0x40 MLOAD DUP1 SWAP2 SUB SWAP1 LOG1 SWAP2 SWAP1 POP JUMP JUMPDEST PUSH2 0x1502 DUP4 DUP4 DUP4 PUSH2 0x183C JUMP JUMPDEST PUSH1 0xA SLOAD PUSH1 0xFF AND ISZERO PUSH2 0x1544 JUMPI PUSH1 0x40 MLOAD PUSH3 0x461BCD PUSH1 0xE5 SHL DUP2 MSTORE PUSH1 0x20 PUSH1 0x4 DUP3 ADD MSTORE PUSH1 0xC PUSH1 0x24 DUP3 ADD MSTORE PUSH12 0x1D1BDAD95B881C185D5CD959 PUSH1 0xA2 SHL PUSH1 0x44 DUP3 ADD MSTORE PUSH1 0x64 ADD PUSH2 0x7C1 JUMP JUMPDEST PUSH1 0xD SLOAD PUSH1 0xFF AND ISZERO PUSH2 0x1554 JUMPI POP POP POP JUMP JUMPDEST PUSH1 0x1 PUSH1 0x1 PUSH1 0xA0 SHL SUB DUP4 AND ISZERO DUP1 PUSH2 0x1571 JUMPI POP PUSH1 0x1 PUSH1 0x1 PUSH1 0xA0 SHL SUB DUP3 AND ISZERO JUMPDEST ISZERO PUSH2 0x157B JUMPI POP POP POP JUMP JUMPDEST PUSH1 0x1 PUSH1 0x1 PUSH1 0xA0 SHL SUB DUP4 AND PUSH1 0x0 SWAP1 DUP2 MSTORE PUSH1 0xC PUSH1 0x20 MSTORE PUSH1 0x40 SWAP1 KECCAK256 SLOAD PUSH1 0xFF AND ISZERO DUP1 ISZERO PUSH2 0x15BD JUMPI POP PUSH1 0x1 PUSH1 0x1 PUSH1 0xA0 SHL SUB DUP3 AND PUSH1 0x0 SWAP1 DUP2 MSTORE PUSH1 0xC PUSH1 0x20 MSTORE PUSH1 0x40 SWAP1 KECCAK256 SLOAD PUSH1 0xFF AND ISZERO JUMPDEST PUSH2 0x15FA JUMPI PUSH1 0x40 MLOAD PUSH3 0x461BCD PUSH1 0xE5 SHL DUP2 MSTORE PUSH1 0x20 PUSH1 0x4 DUP3 ADD MSTORE PUSH1 0xE PUSH1 0x24 DUP3 ADD MSTORE PUSH14 0x30B1B1B7BAB73A10333937BD32B7 PUSH1 0x91 SHL PUSH1 0x44 DUP3 ADD MSTORE PUSH1 0x64 ADD PUSH2 0x7C1 JUMP JUMPDEST PUSH1 0xA SLOAD PUSH2 0x100 SWAP1 DIV PUSH1 0xFF AND ISZERO PUSH2 0x6D2 JUMPI PUSH1 0x1 PUSH1 0x1 PUSH1 0xA0 SHL SUB DUP4 AND PUSH1 0x0 SWAP1 DUP2 MSTORE PUSH1 0xB PUSH1 0x20 MSTORE PUSH1 0x40 SWAP1 KECCAK256 SLOAD PUSH1 0xFF AND DUP1 PUSH2 0x1649 JUMPI POP PUSH1 0x1 PUSH1 0x1 PUSH1 0xA0 SHL SUB DUP3 AND PUSH1 0x0 SWAP1 DUP2 MSTORE PUSH1 0xB PUSH1 0x20 MSTORE PUSH1 0x40 SWAP1 KECCAK256 SLOAD PUSH1 0xFF AND JUMPDEST PUSH2 0x6D2 JUMPI PUSH1 0x40 MLOAD PUSH3 0x461BCD PUSH1 0xE5 SHL DUP2 MSTORE PUSH1 0x20 PUSH1 0x4 DUP3 ADD MSTORE PUSH1 0x1E PUSH1 0x24 DUP3 ADD MSTORE PUSH32 0x7472616E7366657273206C6F636B656420756E74696C206D61696E6E65740000 PUSH1 0x44 DUP3 ADD MSTORE PUSH1 0x64 ADD PUSH2 0x7C1 JUMP JUMPDEST PUSH2 0x169F DUP3 DUP3 PUSH2 0x98E JUMP JUMPDEST PUSH2 0x7D4 JUMPI PUSH2 0x16AC DUP2 PUSH2 0x1884 JUMP JUMPDEST PUSH2 0x16B7 DUP4 PUSH1 0x20 PUSH2 0x1896 JUMP JUMPDEST PUSH1 0x40 MLOAD PUSH1 0x20 ADD PUSH2 0x16C8 SWAP3 SWAP2 SWAP1 PUSH2 0x1E80 JUMP JUMPDEST PUSH1 0x40 DUP1 MLOAD PUSH1 0x1F NOT DUP2 DUP5 SUB ADD DUP2 MSTORE SWAP1 DUP3 SWAP1 MSTORE PUSH3 0x461BCD PUSH1 0xE5 SHL DUP3 MSTORE PUSH2 0x7C1 SWAP2 PUSH1 0x4 ADD PUSH2 0x1B76 JUMP JUMPDEST PUSH1 0xA SLOAD PUSH1 0xFF AND PUSH2 0x1737 JUMPI PUSH1 0x40 MLOAD PUSH3 0x461BCD PUSH1 0xE5 SHL DUP2 MSTORE PUSH1 0x20 PUSH1 0x4 DUP3 ADD MSTORE PUSH1 0x14 PUSH1 0x24 DUP3 ADD MSTORE PUSH20 0x14185D5CD8589B194E881B9BDD081C185D5CD959 PUSH1 0x62 SHL PUSH1 0x44 DUP3 ADD MSTORE PUSH1 0x64 ADD PUSH2 0x7C1 JUMP JUMPDEST JUMP JUMPDEST PUSH1 0x0 PUSH2 0x1744 PUSH1 0x8 SLOAD SWAP1 JUMP JUMPDEST SWAP1 POP SWAP1 JUMP JUMPDEST DUP2 SLOAD PUSH1 0x0 SWAP1 DUP2 SUB PUSH2 0x175C JUMPI POP PUSH1 0x0 PUSH2 0x5D9 JUMP JUMPDEST DUP3 SLOAD PUSH1 0x0 SWAP1 JUMPDEST DUP1 DUP3 LT ISZERO PUSH2 0x17A9 JUMPI PUSH1 0x0 PUSH2 0x1776 DUP4 DUP4 PUSH2 0x1A39 JUMP JUMPDEST PUSH1 0x0 DUP8 DUP2 MSTORE PUSH1 0x20 SWAP1 KECCAK256 SWAP1 SWAP2 POP DUP6 SWAP1 DUP3 ADD SLOAD GT ISZERO PUSH2 0x1795 JUMPI DUP1 SWAP2 POP PUSH2 0x17A3 JUMP JUMPDEST PUSH2 0x17A0 DUP2 PUSH1 0x1 PUSH2 0x1E57 JUMP JUMPDEST SWAP3 POP JUMPDEST POP PUSH2 0x1762 JUMP JUMPDEST PUSH1 0x0 DUP3 GT DUP1 ISZERO PUSH2 0x17D5 JUMPI POP DUP4 PUSH2 0x17D2 DUP7 PUSH2 0x17C4 PUSH1 0x1 DUP7 PUSH2 0x1EF5 JUMP JUMPDEST PUSH1 0x0 SWAP2 DUP3 MSTORE PUSH1 0x20 SWAP1 SWAP2 KECCAK256 ADD SWAP1 JUMP JUMPDEST SLOAD EQ JUMPDEST ISZERO PUSH2 0x17EE JUMPI PUSH2 0x17E5 PUSH1 0x1 DUP4 PUSH2 0x1EF5 JUMP JUMPDEST SWAP3 POP POP POP PUSH2 0x5D9 JUMP JUMPDEST POP SWAP1 POP PUSH2 0x5D9 JUMP JUMPDEST PUSH1 0xA SLOAD PUSH1 0xFF AND ISZERO PUSH2 0x1737 JUMPI PUSH1 0x40 MLOAD PUSH3 0x461BCD PUSH1 0xE5 SHL DUP2 MSTORE PUSH1 0x20 PUSH1 0x4 DUP3 ADD MSTORE PUSH1 0x10 PUSH1 0x24 DUP3 ADD MSTORE PUSH16 0x14185D5CD8589B194E881C185D5CD959 PUSH1 0x82 SHL PUSH1 0x44 DUP3 ADD MSTORE PUSH1 0x64 ADD PUSH2 0x7C1 JUMP JUMPDEST PUSH1 0x1 PUSH1 0x1 PUSH1 0xA0 SHL SUB DUP4 AND PUSH2 0x185B JUMPI PUSH2 0x1853 DUP3 PUSH2 0x1A54 JUMP JUMPDEST PUSH2 0x6D2 PUSH2 0x1A86 JUMP JUMPDEST PUSH1 0x1 PUSH1 0x1 PUSH1 0xA0 SHL SUB DUP3 AND PUSH2 0x1872 JUMPI PUSH2 0x1853 DUP4 PUSH2 0x1A54 JUMP JUMPDEST PUSH2 0x187B DUP4 PUSH2 0x1A54 JUMP JUMPDEST PUSH2 0x6D2 DUP3 PUSH2 0x1A54 JUMP JUMPDEST PUSH1 0x60 PUSH2 0x5D9 PUSH1 0x1 PUSH1 0x1 PUSH1 0xA0 SHL SUB DUP4 AND PUSH1 0x14 JUMPDEST PUSH1 0x60 PUSH1 0x0 PUSH2 0x18A5 DUP4 PUSH1 0x2 PUSH2 0x1E40 JUMP JUMPDEST PUSH2 0x18B0 SWAP1 PUSH1 0x2 PUSH2 0x1E57 JUMP JUMPDEST PUSH8 0xFFFFFFFFFFFFFFFF DUP2 GT ISZERO PUSH2 0x18C8 JUMPI PUSH2 0x18C8 PUSH2 0x1F08 JUMP JUMPDEST PUSH1 0x40 MLOAD SWAP1 DUP1 DUP3 MSTORE DUP1 PUSH1 0x1F ADD PUSH1 0x1F NOT AND PUSH1 0x20 ADD DUP3 ADD PUSH1 0x40 MSTORE DUP1 ISZERO PUSH2 0x18F2 JUMPI PUSH1 0x20 DUP3 ADD DUP2 DUP1 CALLDATASIZE DUP4 CALLDATACOPY ADD SWAP1 POP JUMPDEST POP SWAP1 POP PUSH1 0x3 PUSH1 0xFC SHL DUP2 PUSH1 0x0 DUP2 MLOAD DUP2 LT PUSH2 0x190D JUMPI PUSH2 0x190D PUSH2 0x1E6A JUMP JUMPDEST PUSH1 0x20 ADD ADD SWAP1 PUSH1 0x1 PUSH1 0x1 PUSH1 0xF8 SHL SUB NOT AND SWAP1 DUP2 PUSH1 0x0 BYTE SWAP1 MSTORE8 POP PUSH1 0xF PUSH1 0xFB SHL DUP2 PUSH1 0x1 DUP2 MLOAD DUP2 LT PUSH2 0x193C JUMPI PUSH2 0x193C PUSH2 0x1E6A JUMP JUMPDEST PUSH1 0x20 ADD ADD SWAP1 PUSH1 0x1 PUSH1 0x1 PUSH1 0xF8 SHL SUB NOT AND SWAP1 DUP2 PUSH1 0x0 BYTE SWAP1 MSTORE8 POP PUSH1 0x0 PUSH2 0x1960 DUP5 PUSH1 0x2 PUSH2 0x1E40 JUMP JUMPDEST PUSH2 0x196B SWAP1 PUSH1 0x1 PUSH2 0x1E57 JUMP JUMPDEST SWAP1 POP JUMPDEST PUSH1 0x1 DUP2 GT ISZERO PUSH2 0x19E3 JUMPI PUSH16 0x181899199A1A9B1B9C1CB0B131B232B3 PUSH1 0x81 SHL DUP6 PUSH1 0xF AND PUSH1 0x10 DUP2 LT PUSH2 0x199F JUMPI PUSH2 0x199F PUSH2 0x1E6A JUMP JUMPDEST BYTE PUSH1 0xF8 SHL DUP3 DUP3 DUP2 MLOAD DUP2 LT PUSH2 0x19B5 JUMPI PUSH2 0x19B5 PUSH2 0x1E6A JUMP JUMPDEST PUSH1 0x20 ADD ADD SWAP1 PUSH1 0x1 PUSH1 0x1 PUSH1 0xF8 SHL SUB NOT AND SWAP1 DUP2 PUSH1 0x0 BYTE SWAP1 MSTORE8 POP PUSH1 0x4 SWAP5 SWAP1 SWAP5 SHR SWAP4 PUSH2 0x19DC DUP2 PUSH2 0x1F1E JUMP JUMPDEST SWAP1 POP PUSH2 0x196E JUMP JUMPDEST POP DUP4 ISZERO PUSH2 0x1A32 JUMPI PUSH1 0x40 MLOAD PUSH3 0x461BCD PUSH1 0xE5 SHL DUP2 MSTORE PUSH1 0x20 PUSH1 0x4 DUP3 ADD DUP2 SWAP1 MSTORE PUSH1 0x24 DUP3 ADD MSTORE PUSH32 0x537472696E67733A20686578206C656E67746820696E73756666696369656E74 PUSH1 0x44 DUP3 ADD MSTORE PUSH1 0x64 ADD PUSH2 0x7C1 JUMP JUMPDEST SWAP4 SWAP3 POP POP POP JUMP JUMPDEST PUSH1 0x0 PUSH2 0x1A48 PUSH1 0x2 DUP5 DUP5 XOR PUSH2 0x1F35 JUMP JUMPDEST PUSH2 0x1A32 SWAP1 DUP5 DUP5 AND PUSH2 0x1E57 JUMP JUMPDEST PUSH1 0x1 PUSH1 0x1 PUSH1 0xA0 SHL SUB DUP2 AND PUSH1 0x0 SWAP1 DUP2 MSTORE PUSH1 0x5 PUSH1 0x20 SWAP1 DUP2 MSTORE PUSH1 0x40 DUP1 DUP4 KECCAK256 SWAP2 DUP4 SWAP1 MSTORE SWAP1 SWAP2 KECCAK256 SLOAD PUSH2 0x82C SWAP2 SWAP1 PUSH2 0x1A94 JUMP JUMPDEST PUSH2 0x1A94 JUMP JUMPDEST PUSH2 0x1737 PUSH1 0x6 PUSH2 0x1A81 PUSH1 0x2 SLOAD SWAP1 JUMP JUMPDEST PUSH1 0x0 PUSH2 0x1A9E PUSH2 0x1739 JUMP JUMPDEST SWAP1 POP DUP1 PUSH2 0x1AAA DUP5 PUSH2 0x1ADE JUMP JUMPDEST LT ISZERO PUSH2 0x6D2 JUMPI DUP3 SLOAD PUSH1 0x1 DUP1 DUP3 ADD DUP6 SSTORE PUSH1 0x0 DUP6 DUP2 MSTORE PUSH1 0x20 DUP1 DUP3 KECCAK256 SWAP1 SWAP4 ADD SWAP4 SWAP1 SWAP4 SSTORE SWAP4 DUP5 ADD DUP1 SLOAD SWAP5 DUP6 ADD DUP2 SSTORE DUP3 MSTORE SWAP1 KECCAK256 SWAP1 SWAP2 ADD SSTORE JUMP JUMPDEST DUP1 SLOAD PUSH1 0x0 SWAP1 DUP2 SUB PUSH2 0x1AF1 JUMPI POP PUSH1 0x0 SWAP2 SWAP1 POP JUMP JUMPDEST DUP2 SLOAD DUP3 SWAP1 PUSH2 0x1B01 SWAP1 PUSH1 0x1 SWAP1 PUSH2 0x1EF5 JUMP JUMPDEST DUP2 SLOAD DUP2 LT PUSH2 0x1B11 JUMPI PUSH2 0x1B11 PUSH2 0x1E6A JUMP JUMPDEST SWAP1 PUSH1 0x0 MSTORE PUSH1 0x20 PUSH1 0x0 KECCAK256 ADD SLOAD SWAP1 POP SWAP2 SWAP1 POP JUMP JUMPDEST SWAP2 SWAP1 POP JUMP JUMPDEST PUSH1 0x0 PUSH1 0x20 DUP3 DUP5 SUB SLT ISZERO PUSH2 0x1B3A JUMPI PUSH1 0x0 DUP1 REVERT JUMPDEST DUP2 CALLDATALOAD PUSH1 0x1 PUSH1 0x1 PUSH1 0xE0 SHL SUB NOT DUP2 AND DUP2 EQ PUSH2 0x1A32 JUMPI PUSH1 0x0 DUP1 REVERT JUMPDEST PUSH1 0x0 JUMPDEST DUP4 DUP2 LT ISZERO PUSH2 0x1B6D JUMPI DUP2 DUP2 ADD MLOAD DUP4 DUP3 ADD MSTORE PUSH1 0x20 ADD PUSH2 0x1B55 JUMP JUMPDEST POP POP PUSH1 0x0 SWAP2 ADD MSTORE JUMP JUMPDEST PUSH1 0x20 DUP2 MSTORE PUSH1 0x0 DUP3 MLOAD DUP1 PUSH1 0x20 DUP5 ADD MSTORE PUSH2 0x1B95 DUP2 PUSH1 0x40 DUP6 ADD PUSH1 0x20 DUP8 ADD PUSH2 0x1B52 JUMP JUMPDEST PUSH1 0x1F ADD PUSH1 0x1F NOT AND SWAP2 SWAP1 SWAP2 ADD PUSH1 0x40 ADD SWAP3 SWAP2 POP POP JUMP JUMPDEST DUP1 CALLDATALOAD PUSH1 0x1 PUSH1 0x1 PUSH1 0xA0 SHL SUB DUP2 AND DUP2 EQ PUSH2 0x1B23 JUMPI PUSH1 0x0 DUP1 REVERT JUMPDEST PUSH1 0x0 DUP1 PUSH1 0x40 DUP4 DUP6 SUB SLT ISZERO PUSH2 0x1BD3 JUMPI PUSH1 0x0 DUP1 REVERT JUMPDEST PUSH2 0x1BDC DUP4 PUSH2 0x1BA9 JUMP JUMPDEST SWAP5 PUSH1 0x20 SWAP4 SWAP1 SWAP4 ADD CALLDATALOAD SWAP4 POP POP POP JUMP JUMPDEST PUSH1 0x0 DUP1 PUSH1 0x0 PUSH1 0x60 DUP5 DUP7 SUB SLT ISZERO PUSH2 0x1BFF JUMPI PUSH1 0x0 DUP1 REVERT JUMPDEST PUSH2 0x1C08 DUP5 PUSH2 0x1BA9 JUMP JUMPDEST SWAP3 POP PUSH2 0x1C16 PUSH1 0x20 DUP6 ADD PUSH2 0x1BA9 JUMP JUMPDEST SWAP2 POP PUSH1 0x40 DUP5 ADD CALLDATALOAD SWAP1 POP SWAP3 POP SWAP3 POP SWAP3 JUMP JUMPDEST PUSH1 0x0 PUSH1 0x20 DUP3 DUP5 SUB SLT ISZERO PUSH2 0x1C38 JUMPI PUSH1 0x0 DUP1 REVERT JUMPDEST POP CALLDATALOAD SWAP2 SWAP1 POP JUMP JUMPDEST PUSH1 0x0 DUP1 PUSH1 0x40 DUP4 DUP6 SUB SLT ISZERO PUSH2 0x1C52 JUMPI PUSH1 0x0 DUP1 REVERT JUMPDEST DUP3 CALLDATALOAD SWAP2 POP PUSH2 0x1C62 PUSH1 0x20 DUP5 ADD PUSH2 0x1BA9 JUMP JUMPDEST SWAP1 POP SWAP3 POP SWAP3 SWAP1 POP JUMP JUMPDEST DUP1 CALLDATALOAD DUP1 ISZERO ISZERO DUP2 EQ PUSH2 0x1B23 JUMPI PUSH1 0x0 DUP1 REVERT JUMPDEST PUSH1 0x0 PUSH1 0x20 DUP3 DUP5 SUB SLT ISZERO PUSH2 0x1C8D JUMPI PUSH1 0x0 DUP1 REVERT JUMPDEST PUSH2 0x1A32 DUP3 PUSH2 0x1C6B JUMP JUMPDEST PUSH1 0x0 PUSH1 0x20 DUP3 DUP5 SUB SLT ISZERO PUSH2 0x1CA8 JUMPI PUSH1 0x0 DUP1 REVERT JUMPDEST PUSH2 0x1A32 DUP3 PUSH2 0x1BA9 JUMP JUMPDEST PUSH1 0x0 DUP1 PUSH1 0x40 DUP4 DUP6 SUB SLT ISZERO PUSH2 0x1CC4 JUMPI PUSH1 0x0 DUP1 REVERT JUMPDEST PUSH2 0x1CCD DUP4 PUSH2 0x1BA9 JUMP JUMPDEST SWAP2 POP PUSH2 0x1C62 PUSH1 0x20 DUP5 ADD PUSH2 0x1C6B JUMP JUMPDEST PUSH1 0x0 DUP1 PUSH1 0x40 DUP4 DUP6 SUB SLT ISZERO PUSH2 0x1CEE JUMPI PUSH1 0x0 DUP1 REVERT JUMPDEST PUSH2 0x1CF7 DUP4 PUSH2 0x1BA9 JUMP JUMPDEST SWAP2 POP PUSH2 0x1C62 PUSH1 0x20 DUP5 ADD PUSH2 0x1BA9 JUMP JUMPDEST PUSH1 0x1 DUP2 DUP2 SHR SWAP1 DUP3 AND DUP1 PUSH2 0x1D19 JUMPI PUSH1 0x7F DUP3 AND SWAP2 POP JUMPDEST PUSH1 0x20 DUP3 LT DUP2 SUB PUSH2 0x1D39 JUMPI PUSH4 0x4E487B71 PUSH1 0xE0 SHL PUSH1 0x0 MSTORE PUSH1 0x22 PUSH1 0x4 MSTORE PUSH1 0x24 PUSH1 0x0 REVERT JUMPDEST POP SWAP2 SWAP1 POP JUMP JUMPDEST PUSH4 0x4E487B71 PUSH1 0xE0 SHL PUSH1 0x0 MSTORE PUSH1 0x11 PUSH1 0x4 MSTORE PUSH1 0x24 PUSH1 0x0 REVERT JUMPDEST PUSH1 0x1 DUP2 DUP2 JUMPDEST DUP1 DUP6 GT ISZERO PUSH2 0x1457 JUMPI DUP2 PUSH1 0x0 NOT DIV DUP3 GT ISZERO PUSH2 0x1D76 JUMPI PUSH2 0x1D76 PUSH2 0x1D3F JUMP JUMPDEST DUP1 DUP6 AND ISZERO PUSH2 0x1D83 JUMPI SWAP2 DUP2 MUL SWAP2 JUMPDEST SWAP4 DUP5 SHR SWAP4 SWAP1 DUP1 MUL SWAP1 PUSH2 0x1D5A JUMP JUMPDEST PUSH1 0x0 DUP3 PUSH2 0x1D9F JUMPI POP PUSH1 0x1 PUSH2 0x5D9 JUMP JUMPDEST DUP2 PUSH2 0x1DAC JUMPI POP PUSH1 0x0 PUSH2 0x5D9 JUMP JUMPDEST DUP2 PUSH1 0x1 DUP2 EQ PUSH2 0x1DC2 JUMPI PUSH1 0x2 DUP2 EQ PUSH2 0x1DCC JUMPI PUSH2 0x1DE8 JUMP JUMPDEST PUSH1 0x1 SWAP2 POP POP PUSH2 0x5D9 JUMP JUMPDEST PUSH1 0xFF DUP5 GT ISZERO PUSH2 0x1DDD JUMPI PUSH2 0x1DDD PUSH2 0x1D3F JUMP JUMPDEST POP POP PUSH1 0x1 DUP3 SHL PUSH2 0x5D9 JUMP JUMPDEST POP PUSH1 0x20 DUP4 LT PUSH2 0x133 DUP4 LT AND PUSH1 0x4E DUP5 LT PUSH1 0xB DUP5 LT AND OR ISZERO PUSH2 0x1E0B JUMPI POP DUP2 DUP2 EXP PUSH2 0x5D9 JUMP JUMPDEST PUSH2 0x1E15 DUP4 DUP4 PUSH2 0x1D55 JUMP JUMPDEST DUP1 PUSH1 0x0 NOT DIV DUP3 GT ISZERO PUSH2 0x1E29 JUMPI PUSH2 0x1E29 PUSH2 0x1D3F JUMP JUMPDEST MUL SWAP4 SWAP3 POP POP POP JUMP JUMPDEST PUSH1 0x0 PUSH2 0x1A32 PUSH1 0xFF DUP5 AND DUP4 PUSH2 0x1D90 JUMP JUMPDEST DUP1 DUP3 MUL DUP2 ISZERO DUP3 DUP3 DIV DUP5 EQ OR PUSH2 0x5D9 JUMPI PUSH2 0x5D9 PUSH2 0x1D3F JUMP JUMPDEST DUP1 DUP3 ADD DUP1 DUP3 GT ISZERO PUSH2 0x5D9 JUMPI PUSH2 0x5D9 PUSH2 0x1D3F JUMP JUMPDEST PUSH4 0x4E487B71 PUSH1 0xE0 SHL PUSH1 0x0 MSTORE PUSH1 0x32 PUSH1 0x4 MSTORE PUSH1 0x24 PUSH1 0x0 REVERT JUMPDEST PUSH32 0x416363657373436F6E74726F6C3A206163636F756E7420000000000000000000 DUP2 MSTORE PUSH1 0x0 DUP4 MLOAD PUSH2 0x1EB8 DUP2 PUSH1 0x17 DUP6 ADD PUSH1 0x20 DUP9 ADD PUSH2 0x1B52 JUMP JUMPDEST PUSH17 0x1034B99036B4B9B9B4B733903937B6329 PUSH1 0x7D SHL PUSH1 0x17 SWAP2 DUP5 ADD SWAP2 DUP3 ADD MSTORE DUP4 MLOAD PUSH2 0x1EE9 DUP2 PUSH1 0x28 DUP5 ADD PUSH1 0x20 DUP9 ADD PUSH2 0x1B52 JUMP JUMPDEST ADD PUSH1 0x28 ADD SWAP5 SWAP4 POP POP POP POP JUMP JUMPDEST DUP2 DUP2 SUB DUP2 DUP2 GT ISZERO PUSH2 0x5D9 JUMPI PUSH2 0x5D9 PUSH2 0x1D3F JUMP JUMPDEST PUSH4 0x4E487B71 PUSH1 0xE0 SHL PUSH1 0x0 MSTORE PUSH1 0x41 PUSH1 0x4 MSTORE PUSH1 0x24 PUSH1 0x0 REVERT JUMPDEST PUSH1 0x0 DUP2 PUSH2 0x1F2D JUMPI PUSH2 0x1F2D PUSH2 0x1D3F JUMP JUMPDEST POP PUSH1 0x0 NOT ADD SWAP1 JUMP JUMPDEST PUSH1 0x0 DUP3 PUSH2 0x1F52 JUMPI PUSH4 0x4E487B71 PUSH1 0xE0 SHL PUSH1 0x0 MSTORE PUSH1 0x12 PUSH1 0x4 MSTORE PUSH1 0x24 PUSH1 0x0 REVERT JUMPDEST POP DIV SWAP1 JUMP INVALID LOG2 PUSH5 0x6970667358 0x22 SLT KECCAK256 LOG1 0xE6 PUSH13 0x6851C8980F8C04DEF1408C9AD0 PUSH24 0x2A3984C6231F03388091D4C139DA1064736F6C6343000818 STOP CALLER "},"methodIdentifiers":{"DEFAULT_ADMIN_ROLE()":"a217fddf","FREEZER_ROLE()":"06a85f0f","MAX_SUPPLY()":"32cb6b0c","MINTER_ROLE()":"d5391393","PAUSER_ROLE()":"e63ab1e9","SNAPSHOT_ROLE()":"7028e2cd","adminForceTransfer(address,address,uint256)":"e6a07cc1","allowance(address,address)":"dd62ed3e","approve(address,uint256)":"095ea7b3","balanceOf(address)":"70a08231","balanceOfAt(address,uint256)":"4ee2cd7e","burn(uint256)":"42966c68","burnFrom(address,uint256)":"79cc6790","decimals()":"313ce567","decreaseAllowance(address,uint256)":"a457c2d7","forcedBurnFrom(address,uint256)":"5544e64f","frozen(address)":"d0516650","getRoleAdmin(bytes32)":"248a9ca3","globalLocked()":"09fa90b3","grantRole(bytes32,address)":"2f2ff15d","hasRole(bytes32,address)":"91d14854","increaseAllowance(address,uint256)":"39509351","mint(address,uint256)":"40c10f19","name()":"06fdde03","pause()":"8456cb59","paused()":"5c975abb","renounceRole(bytes32,address)":"36568abe","revokeRole(bytes32,address)":"d547741f","setFrozen(address,bool)":"ac869cd8","setGlobalLock(bool)":"319a9395","setWalletUnlocked(address,bool)":"e1830f7d","snapshot()":"9711715a","supportsInterface(bytes4)":"01ffc9a7","symbol()":"95d89b41","totalSupply()":"18160ddd","totalSupplyAt(uint256)":"981b24d0","transfer(address,uint256)":"a9059cbb","transferFrom(address,address,uint256)":"23b872dd","unpause()":"3f4ba83a","walletUnlocked(address)":"679a3a22"}}}}}